:100000000C9412020C9459020C9459020C9459024B
:100010000C9459020C9459020C9459020C945902F4
:100020000C9459020C9459020C9459020C940B1D17
:100030000C94BA1D0C9477170C9459020C94590225
:100040000C9459020C9459020C9459020C94DF1729
:100050000C9459020C9459020C9459020C945902B4
:100060000C9459020C9459020C9459020C945902A4
:100070000C9459028C0C8C0CBE0CBE0C0B0D3F0E5C
:100080003F0E3F0E290DBE0DCF0DCF0D2F0E3F0E93
:100090003F0E380ED00ED00EE20EE20ED90EE20E5A
:1000A000E20EE20ED00ED00EDE0EE20EE20EDE0EFC
:1000B000271E4E1E461F4E1E461F9A1EBD1E461F61
:1000C000141F231F29001E001F00200021002200F2
:1000D000230024002500260027002D002E002A00E2
:1000E0002B0014001A000800150017001C0018004F
:1000F0000C00120013002F0030000000E300040089
:100100001600070009000A000B000D000E000F008A
:100110003300340032002800E10064001D001B00A1
:1001200006001900050011001000360037003800E5
:100130005200E500E000E300E200000000002C00B7
:10014000000000000000E6000151500051004F0087
:1001500035003A003B003C003D003E003F004000BF
:10016000410042004300440045004C0039000100BA
:100170000100010001000100010001000100AC00CC
:10018000AE00AB0001000000005C010001000100B6
:100190000100010001000100010001000100010057
:1001A00001005800010001000100010001000100F0
:1001B00001000100A800010001000100A9004700A2
:1001C0000100135C010000000000010000000000BD
:1001D0000000010000004B00AA004E0044454255BB
:1001E000473A2064697361626C65642E0A00444575
:1001F0004255473A20656E61626C65642E0A000ABA
:10020000002530313662003A200025303258000A8D
:10021000722F63203031323334353637383941422A
:10022000434445460A000A002530325820006B65D9
:1002300079626F6172645F7265706F72743A2000E8
:100240000A0025303258006B6579626F6172645F15
:100250007365745F6C65643A200064656C5F6B6500
:10026000795F6269743A2063616E27742064656CFB
:100270003A20253032580A006164645F6B65795F0B
:100280006269743A2063616E2774206164643A2065
:10029000253032580A005B735D004B6579626F61EF
:1002A00072642073746172742E0A005B575D005B88
:1002B000535D005B525D000403300000000E0353E9
:1002C0000068006F0072007400790000001403538E
:1002D00000680069006B003300690049004E00436C
:1002E0000000000403090409025B00030100A0FAF6
:1002F000090400000103010100092111010001228C
:1003000040000705810308000A09040100010300F9
:100310000000092111010001226D00070582032060
:10032000000A090402000203000000092111010073
:100330000122220007058303200001070503032093
:1003400000011201100100000008EDFE2440010030
:10035000010203010631FF0974A101097515002688
:10036000FF009520750881020976150026FF00958B
:100370002075089102C005010980A10185031901BA
:100380002AB700150126B700950175108100C00538
:100390000C0901A101850419012AA002150126A05A
:1003A00002950175108100C005010906A1018505AE
:1003B000050719E029E71500250195087501810257
:1003C0000507190029EF1500250195F07501810237
:1003D0000508190129059505750191029501750317
:1003E0009101C005010906A101050719E029E715DA
:1003F00000250195087501810295017508810105A7
:1004000007190029FF150026FF00950675088100D1
:1004100005081901290595057501910295017503D6
:100420009101C00011241FBECFEFD4E0DEBFCDBFCD
:1004300004B603FE27C080918E0290918F02A09196
:100440009002B09191028730904BA740B04BD1F40D
:1004500010928E0210928F021092900210929102CE
:1004600014BE84B7877F84BF0FB6F894A895809197
:100470006000886180936000109260000FBEE0E031
:10048000F8E3099511E0A0E0B1E0E2EDFFE302C07E
:1004900005900D92A239B107D9F722E0A2E9B1E0A7
:1004A00001C01D92AE38B207E1F70E944F1A0C94BA
:1004B000E71F0C940000FF93EF93E0919201F091FD
:1004C0009301309709F00995EF91FF910895FC0190
:1004D0008591803011F0EFDFFBCF0895FF27E0E238
:1004E00030E247FF0CC0419597FF09C0EDE26095EF
:1004F000709580959095611D711D811D911D27FF3F
:1005000002C0219530E350E2AA27660F771F881FAB
:10051000991FAA1FA41710F0A41B63955A95A9F759
:10052000AA3008F0A95FA05DAF93F395611571053E
:100530008105910541F7ED3211F4EF93F395F21730
:1005400018F43F93F395FBCF8F91B5DFFA95E1F760
:100550000895E991F9918591803021F0853219F063
:10056000AADFF9CF089520E0E89455915532C1F300
:10057000503311F4689455915A3348F4505390F322
:10058000220F022E220F220F200D250FF4CF0EF482
:10059000219589919991533619F3533729F15335A0
:1005A00059F1BC0188279927E8945C3621F4899198
:1005B000999168945591543639F446EF7EF077FF5F
:1005C0000DC08FEF9FEF0AC055374AE039F058351C
:1005D00040E121F0523642E009F00895FF93EF9395
:1005E0007DDFEF91FF91B7CFFF93EF93FC018191F6
:1005F0008030B9F360DFFBCFFF93EF9368DFF1CF7B
:10060000DF93CF93CDB7DEB72596A3DFCF91DF91F0
:1006100008950C9448060C9446060C9413030C940D
:10062000650381E0089581E0089508950C94150311
:100630001F93CF93DF9300D000D01F92CDB7DEB7CA
:1006400049835A836B832091AC0189819A8121115E
:1006500012C0662349F00E943C14182F682F89812C
:100660009A810E94DC1303C00E940D14182F698127
:100670007A81812F04C00E943C1469817A810F9095
:100680000F900F900F900F90DF91CF911F910C94CE
:10069000DE03FC01408151816281738184810C946D
:1006A0001803CF93DF93EC010E944903BE01DF9151
:1006B000CF910C9416030E949815811102C00E94DC
:1006C00038160C9409030C940B03089581E00895E7
:1006D0000C946603CF93C82F0E940F038C2F0E94A7
:1006E0006803CF91089508950E94BE0E0E9473037F
:1006F0002FEF84E39CE0215080409040E1F700C060
:1007000000000C9405180F931F93CF93DF93EC0117
:100710000E9449038C01BE010E940D03882309F445
:1007200042C0BE01C8010E94E8078823E1F1BE0172
:10073000C8010E9429088823B1F1BE01C8010E94A6
:100740005409882381F18A81882331F101308CE5B5
:10075000180751F00E3D8CE51807D9F001151C451E
:10076000D9F40E9474031FC080913F02C82FC09526
:10077000C170C0FB80F980933F02CC2329F08EEE3C
:1007800091E00E9467020FC08CED91E00E94670229
:100790000BC00E94381607C0CE01DF91CF911F9188
:1007A0000F910C941103C0E08C2FDF91CF911F911A
:1007B0000F91089580E090E008950895382F262F36
:1007C000872F90E06EE070E00E94821FFC01832F73
:1007D00090E066E470E00E94821F8E0F9F1FFC0174
:1007E000E20FF11DEE0FFF1FEC53FF4F8591949127
:1007F0000895880F991FFC01E150FE4F8591949157
:100800000895CF93DF930E94DE030E941A05EC0146
:100810008115904508F043C0C11580E4D80708F061
:10082000D0C0C03ED10528F5C03CD10508F0B8C005
:10083000C83AD10578F4C53AD10508F0A9C0C1304D
:10084000D10509F4F3C008F4EFC0C430D10508F0B5
:10085000EDC0EAC0CF3BD10508F0E6C0C85AD0E0F1
:10086000CC0FDD1FC35FDE4F0990D881C02DD4644B
:10087000DDC0C11590E2D90750F4C11521E0D207BF
:1008800008F0D4C0C83ED10508F4D0C0CDC0C11511
:1008900080E3D80708F08BC0CE019F7084C0C115DB
:1008A00095E5D90708F048C0C11524E5D20708F03E
:1008B000A1C0C11582E5D80720F5C11591E5D9077A
:1008C00008F082C0CE01F4E096958795FA95E1F79D
:1008D000282F23703C2F337081E090E002C0880FF6
:1008E000991F3A95E2F79C68922BCF70C695C695F2
:1008F000D0E0A5E0CC0FDD1FAA95E1F7C82BD92BDE
:1009000095C09E01237033278C2F86958695C1153F
:10091000D34508F05EC0C1E0D0E002C0CC0FDD1FBF
:100920002A95E2F790E075E0880F991F7A95E1F734
:10093000C82BD92BDC687AC0C11529E5D207A0F4F1
:10094000C11588E5D80708F05AC0C11596E5D90742
:1009500008F06AC08C2F0E94AE058F71C82FD0E0BE
:10096000DC2FCC27D06262C0C1152AE5D20708F47B
:100970004BC0CE0190568115904208F055C08D2F86
:100980008F710E94AE05DD27D0628F71D82B4EC0CB
:10099000C55AD0E0C55CDE4FC881D0E0D06446C007
:1009A000CE01805C91090E94F903EC013FC0CE01A9
:1009B0009927D3FF03C0EC01D86C38C0EC01D06C90
:1009C00035C0DF70D06A32C0DC2FCC27C16FD06A4F
:1009D0002DC0C1E0D0E002C0CC0FDD1F2A95E2F7A8
:1009E00090E065E0880F991F6A95E1F7C82BD92B35
:1009F000DA681CC0DC2FCC27C46FD06A17C0DC2F8C
:100A0000CC27C06FD06A12C08C2F8F700E94AE05A9
:100A100094E0D695C7959A95E1F7CF70D0E0DC2F9A
:100A2000CC27D069C82B02C0C0E0D0E0CE01DF9156
:100A3000CF9108958238910569F1B0F48133910521
:100A400009F46DC048F48932910509F463C08A3213
:100A5000910509F469C008958533910509F455C0DD
:100A600089339105B9F00895833E910569F138F411
:100A7000803E9105B1F0823E910509F10895863ED0
:100A80009105A9F1873E9105B9F1843E910509F0E0
:100A900064C023C020917F0220FD4FC021FD4DC0C6
:100AA000089580917F0280FD44C08091800280FF84
:100AB00044C080917F0284FD42C083EE4DC080918E
:100AC0007F0282FF38C0F5CF80917F0282FD33C064
:100AD0008091800280FD31C0ECCF8091800281FF47
:100AE00032C080917F0284FD2AC087EE35C080919C
:100AF0007F0283FF26C0F5CF80917F0283FD21C056
:100B00008091800281FD1FC0ECCF80917F0285FD26
:100B10001CC01DC080917F0285FD19C016C0809148
:100B20007F0286FD16C017C080917F0286FD13C02C
:100B300010C089E311C082EE0FC080EE0DC080E0CE
:100B40000BC086EE09C084EE07C089E205C085E3CC
:100B500003C08AE201C081E390E0089590917F0292
:100B600092FF0DC0282F2871283019F4877F8460E8
:100B700006C0282F2471243011F48B7F886093FFE6
:100B80000DC0282F2871283119F4877E846106C092
:100B9000282F2471243111F48B7E886120918002EA
:100BA00020FF0DC0382F3871383019F4877F8160ED
:100BB00006C0382F3171313011F48E7F886021FFEB
:100BC0000DC0282F2871283119F4877E816106C055
:100BD000282F2171213111F48E7E886194FD877E4A
:100BE0000895E82FF0E0EE0FFF1FEF58FD4F8081D2
:100BF00091810895CF92DF92EF92FF920F931F930E
:100C0000CF93DF938FE092E00E94670281E7E82EA6
:100C100082E0F82EC0E0D0E09AE0C92E92E0D92E12
:100C200001E012E0DF93CF93DF92CF920E940003A6
:100C300087E092E00E946702F701819191917F0124
:100C40000E9485159F938F931F930F930E9400031B
:100C50008FEF91E00E94670221968DB79EB70896AC
:100C60000FB6F8949EBF0FBE8DBFC530D105D1F62B
:100C7000DF91CF911F910F91FF90EF90DF90CF9078
:100C8000089580EA8A95F1F7089508950C94450631
:100C90000C944506CF93DF93ACE4B1E041E551E01D
:100CA00061E070E08D91E82FE295EF70F0E021A116
:100CB0008F70EB0102C0CC0FDD1F8A95E2F7CE01E9
:100CC0009C2F9095922391A392A1892B82A34A17DE
:100CD0005B0741F7AEE3B1E04CE451E061E070E066
:100CE0008D91E82FE295EF70F0E021A18F70EB017C
:100CF00002C0CC0FDD1F8A95E2F7CE019C2F9095A4
:100D0000922391A392A1892B82A34A175B0741F7F3
:100D1000E7E6F2E0A1E7B2E081E792E011921192FA
:100D20001D921D928E179F07C9F785E00E94390713
:100D3000DF91CF910C945B032F923F924F925F9281
:100D40006F927F928F929F92AF92BF92CF92DF92DB
:100D5000EF92FF920F931F93CF93DF938CE4C82EF3
:100D600081E0D82E07E612E091E7492E92E0592E55
:100D7000312C88248394912C5801D8016D907C905B
:100D800011971D921C92F60181916F01C82FC29597
:100D9000CF70D0E099A18F70740101C0EE0C8A95DC
:100DA000EAF7892F8E2989A38AA12E2C20948221EB
:100DB0008AA30E944106EEE3F1E020E030E0619179
:100DC000A62FA295AF70B0E090968C91D8014D916E
:100DD0005C9190E06F7002C0959587956A95E2F7F7
:100DE00080FD08C0C401022E02C0880F991F0A941A
:100DF000E2F702C080E090E0482B592BD8014D93D8
:100E00005C932F5F3F4F2E303105C9F689A1282210
:100E100029A28AA1E82AEAA20E5F1F4F81E0F5010C
:100E2000208131812615370509F480E0382A4016E3
:100E3000510609F0A1CF232D45E061E772E087E676
:100E400092E00E943A070E946303832DDF91CF91C5
:100E50001F910F91FF90EF90DF90CF90BF90AF90D8
:100E60009F908F907F906F905F904F903F902F90CA
:100E700008950895FF920F931F93CF93DF93F82E59
:100E8000092F162FD72FC42F222349F081E08093FA
:100E900096010E94A91790939501809394018091E7
:100EA00096018823D9F080919401909195010E9438
:100EB000B517069798F0EF2DF02FA12FBD2F80E0EA
:100EC00090E04C2F50E08417950734F42191319134
:100ED0002D933D930196F7CF10929601DF91CF911C
:100EE0001F910F91FF9008950F931F93CF93DF935E
:100EF000C62FD42F122FFC0182818823C9F0609362
:100F000099010E94A917909398018093970180E21C
:100F10008C0F883008F057C0C77081E001C0880F7F
:100F2000CA95EAF7DF91CF911F910F910C944C0C69
:100F300080919901681330C0809197019091980138
:100F40000E94B517883C910538F500E20D0FCD17CA
:100F5000B9F080E28C0F883040F4C77081E001C0A6
:100F6000880FCA95EAF70E94530C083028F581E0F3
:100F70009D2F977001C0880F9A95EAF70E944C0C3C
:100F8000812F0E94390C0830F0F4D77081E001C045
:100F9000880FDA95EAF70AC080E28C0F883098F45F
:100FA000C77081E001C0880FCA95EAF7DF91CF9141
:100FB0001F910F910C94530C812FDF91CF911F91B2
:100FC0000F910C94390CDF91CF911F910F910895DF
:100FD0009C01CB01233F4CE53407F9F078F4283D20
:100FE000FCE53F07B9F0293D4CE5340711F1273DF9
:100FF0003C4531F526E241EE61EE1EC0253FFCE5A1
:101000003F0799F070F0263F3C45D1F427E245EECA
:1010100066EE12C027E245EE0EC026E241EE60EE1B
:101020000BC027E245EE64EE07C026E241EE62EE19
:1010300003C028E241E065EE0E94740780E0089555
:10104000FC018281882319F010929901089581E0B2
:101050000895CF93DF93EC01FB018281882309F48B
:101060001FC1C230FCE5DF0708F41BC1C6319CE597
:10107000D90738F09E012A5F3C452930310508F038
:1010800010C10E94AB159093800280937F02C03103
:10109000ECE5DE0709F4C3C008F041C0C8308CE5B8
:1010A000D80709F49AC0F0F4C430ECE5DE0709F47F
:1010B00087C068F4C2308CE5D80709F477C0C33024
:1010C000DC4509F0E3C080917F02826076C0C630C3
:1010D000ECE5DE0709F46EC008F07BC080917F026A
:1010E00088606BC0CC308CE5D80709F485C068F403
:1010F000CA30ECE5DE0709F474C008F079C00E943C
:10110000BE0E80917F02806858C0CE308CE5D80733
:1011100009F476C008F07FC080917F028BC0CB3F7E
:10112000ECE5DE0709F44FC018F5C3318CE5D807AC
:1011300009F47DC078F4C131ECE5DE0709F473C031
:10114000C231DC4509F0A2C00E94BE0E80917F0230
:101150008F7733C0C5318CE5D80709F472C008F425
:1011600086C0CA3FDC4509F091C0809180023EC034
:10117000CF3FFCE5DF0709F45FC058F4CD3F9CE5A5
:10118000D90709F444C008F43FC08091800282600E
:101190002DC0C130FDE5DF0709F475C008F45DC05E
:1011A000C230DD4509F072C080E06EC080917F02E0
:1011B000816003C080917F02806180937F0266C05E
:1011C00080917F0211C080918002826080938002B2
:1011D0005DC080917F028062F0CF80917F02806449
:1011E000ECCF80917F0288608460E7CF8160EECF92
:1011F00080917F028E7FE1CF80917F028D7FDDCF56
:1012000080917F02877FD9CF8091800218C0809122
:1012100080028D7FDBCF80917F028F7ECECF809149
:101220007F028F7DCACF80917F028F7BC6CF809156
:101230007F02877F8B7FC1CF809180028D7F8E7FE1
:10124000C5CF80917F0282FB222720F991E092276F
:1012500090FB82F990FB83F9B0CF80918002982FA8
:10126000909591708E7F892B90FB81F9AFCF0E9472
:10127000BE0E80917F0287FB222720F991E0922702
:1012800090FB87F99ACF81E00E943A1680917F0205
:10129000909180020E94BC150E94BE0E80E001C0A9
:1012A00081E0DF91CF910895CF93DF9386319C4504
:1012B00041F5EB010E94BD14982F8A812091000115
:1012C00030910101882379F09A7A81E009F480E075
:1012D00080939A01911102C069E201C065E3C901DE
:1012E0000E94F7160AC080919A01811102C069E23A
:1012F00001C065E3C9010E9402170E940B1580E03E
:1013000001C081E0DF91CF9108959093A001809377
:101310009F010895E0919F01F091A001309721F085
:101320000190F081E02D099480E00895EF92FF9202
:101330001F93CF93DF93FC01A0919F01B091A00177
:10134000109709F442C080910C01882341F08091EC
:101350007F0287FF04C08081818385E08083EF0165
:101360001296ED91FC911397CE01099580913F0261
:1013700082FF2BC080FF04C08EE292E00E946702D1
:1013800018E088E2E82E82E0F82E80913F0280FF8C
:101390000BC088811F928F93FF92EF920E940003EF
:1013A0000F900F900F900F90115021961111EDCFCB
:1013B00080913F0280FF09C086E292E0DF91CF91E9
:1013C0001F91FF90EF900C946702DF91CF911F91D6
:1013D000FF90EF90089520919D0130919E01281774
:1013E000390771F090939E0180939D01E0919F01D8
:1013F000F091A001309721F00680F781E02D09944B
:10140000089520919B0130919C012817390771F0B4
:1014100090939C0180939B01E0919F01F091A0012A
:10142000309721F00084F185E02D09940895089506
:101430000C94170A0C94180A0C94170A0C94170AA7
:101440000E941C0A0C941A0A81E008950E94A017B9
:101450000E944A060E9429180C941E0ACF93C82F96
:1014600080913F0282FF1EC080FF04C087E492E0AB
:101470000E94670280913F0280FF0CC01F92CF93B1
:1014800082E492E09F938F930E9400030F900F904D
:101490000F900F9080913F0280FF04C080E492E0A3
:1014A0000E9467028C2FCF910C946A037F928F92D7
:1014B0009F92AF92BF92CF92DF92EF92FF920F93E3
:1014C0001F93CF93DF93CDB7DEB72A970FB6F8946B
:1014D000DEBF0FBECDBF0E949C060E94240A811170
:1014E00011C08FEF89838A831B820E94A9178160B4
:1014F000782F9D838C8349815A816B818D810E94D5
:10150000040B4FC042EAA42E41E0B42E00E010E0EC
:10151000702E802F0E94F1056C01F5018190919051
:101520005F01882699268114910431F40F5F1F4FC3
:101530000530110569F7D5CF80913F0281FD0E94EA
:10154000FA0580E0EE24E394F12C94012E213F2152
:10155000232B09F18E837F82CE20DF2081E0CD28EE
:1015600009F480E088870E94A9178160782F9A8704
:1015700089874E815F8168858A850E94040B000FF0
:10158000111FF801EE55FE4F80819181E826F92662
:10159000F182E08206C08F5FEE0CFF1C8E30A9F650
:1015A000C5CF0E948A099091A1018917C9F00E94B4
:1015B0008A098093A1012A960FB6F894DEBF0FBE68
:1015C000CDBFDF91CF911F910F91FF90EF90DF90F2
:1015D000CF90BF90AF909F908F907F900C942E0AE9
:1015E0002A960FB6F894DEBF0FBECDBFDF91CF9124
:1015F0001F910F91FF90EF90DF90CF90BF90AF9031
:101600009F908F907F900895CF93DF93CDB7DEB7F3
:101610002B970FB6F894DEBF0FBECDBF4F83588710
:1016200069877A878B87DE01119686E0FD0111922A
:101630008A95E9F785E0FE01379601900D928A952B
:10164000E1F749815A816B817C818D819E810E9465
:101650009C112B960FB6F894DEBF0FBECDBFDF9165
:10166000CF910895FC01808191810E947E1408959C
:10167000CF93882309F49CC0C82F8238C1F40E94FC
:101680008A0981FD95C069E3809100019091010173
:101690000E94F7160E940B152FEF81EE94E0215067
:1016A00080409040E1F700C0000069E319C0833832
:1016B00001F50E948A0980FD7BC063E580910001ED
:1016C000909101010E94F7160E940B152FEF81EEF9
:1016D00094E0215080409040E1F700C0000063E5B5
:1016E00080910001909101010E940217CF910C940A
:1016F0000B158438C1F40E948A0982FD59C067E441
:1017000080910001909101010E94F7160E940B1533
:101710002FEF81EE94E0215080409040E1F700C02F
:10172000000067E4DDCF8CEF8C0F813AD0F46C2F92
:1017300080910001909101010E945516882349F083
:101740006C2F80910001909101010E9402170E946C
:101750000B156C2F80910001909101010E94F716EA
:10176000C5CF80E28C0F883048F4C77081E001C09B
:10177000880FCA95EAF70E94C014B8CFEBE5EC0FCA
:10178000E33040F4F0E0E158FE4F808190E0CF91EB
:101790000C94EB09C85AC73158F4EC2FF0E0EE0F67
:1017A000FF1FEF5AFE4F80819181CF910C94010A67
:1017B000CF910895882309F45BC0682F823879F4AB
:1017C0000E948A0981FF54C069E3809100019091D1
:1017D00001010E94F7160E940B1569E310C08338BF
:1017E000B1F40E948A0980FF43C063E58091000143
:1017F000909101010E94F7160E940B1563E58091FC
:101800000001909101010E9402170C940B1584387D
:1018100079F40E948A0982FF2BC067E4809100015D
:10182000909101010E94F7160E940B1567E4E7CF23
:101830008CEF860F813A18F380E2860F883048F4E7
:10184000677081E001C0880F6A95EAF70E94C614AC
:10185000DCCF8BE5860F833020F480E090E00C94A1
:10186000EB09685A673120F480E090E00C94010A9B
:101870000895CF93C82F0E94380BC93349F42FEF36
:1018800087EE93E0215080409040E1F700C00000D7
:101890008C2FCF910C94DA0B882321F00E94C01476
:1018A0000C940B150895882321F00E94C6140C9403
:1018B0000B150895CF92DF92EF92FF920F931F9333
:1018C000CF93DF937C01062FC72FFC011581129562
:1018D0001F70D281D1110E94DD140E94B61488239A
:1018E00079F0DD2369F080E2800F883048F082E0F3
:1018F0000E9455150E94B61491E0D82ED92601C039
:10190000D12CCC2EC2948FE0C8228C2D90E0FC010B
:10191000E65CFF4F0C949F1F8C2F807FCF70882335
:1019200011F0C295C07FDD2399F0CC2309F482C168
:1019300080E2800F883010F0011104C08C2F0E94CB
:10194000C01403C08C2F0E94D0140E940B1572C1CA
:10195000802F0E94DA0BCC2309F491C180E2800F22
:10196000883010F0011104C08C2F0E94C61403C0EF
:101970008C2F0E94D6140E940B1581C18C2F807F62
:10198000CF70803211F0C295C07F002319F0013072
:10199000C9F022C0DD2371F0112341F0113031F480
:1019A0000E94F0148C2B0E94F81469C10E94F0145C
:1019B0008C2B1DC0112319F0113009F460C10E9455
:1019C000011525C0DD2321F0163008F058C10EC0E6
:1019D000153008F054C11BC0DD2361F0112331F034
:1019E000F701858180FF26C18F7085838C2F0E942F
:1019F0004C0C45C1112359F0093309F02CC1FFEFFC
:101A000027EE83E0F15020408040E1F722C18C2F87
:101A10000E94530C34C18C2F86958695837019F0E3
:101A2000813061F02CC1DD2321F0802F9C2F937039
:101A300002C080E090E00E94EB0929C1DD2321F083
:101A4000802F9C2F937002C080E090E00E94010ADA
:101A50001EC18C2F837009F045C0D11114C1402FD5
:101A6000429546954770440F440F602F6F70862F44
:101A700090E0A0E0B0E0042E04C0880F991FAA1FD8
:101A8000BB1F0A94D2F704FF10C00FE010E020E063
:101A900030E004C0000F111F221F331F4A95D2F7F8
:101AA000009510952095309503C000E010E0980156
:101AB000C695C695C370BC01CD01602B712B822BDE
:101AC000932BC23049F058F4C13019F00E94F21241
:101AD000DAC00E94E012D7C00E940413D4C00E9452
:101AE000DE12D1C0DD2319F08C2F817001C08695E4
:101AF000882309F4C8C0402F429546954770440F8B
:101B0000440F602F6F70862F90E0A0E0B0E0042EAD
:101B100004C0880F991FAA1FBB1F0A94D2F704FFA5
:101B200010C00FE010E020E030E004C0000F111FF3
:101B3000221F331F4A95D2F70095109520953095B6
:101B400003C000E010E09801C695C695C370BC01C3
:101B5000CD01602B712B822B932BC23049F058F4AE
:101B6000C13019F00E94B7138EC00E94A5138BC01C
:101B70000E94C91388C00E94181385C0CF70DD234E
:101B800039F08C2F0E943E13802F0E944C0C7BC09A
:101B9000802F0E94530C8C2F0E945F1374C0023F51
:101BA00001F128F4003F41F0013FA1F03FC0033FA5
:101BB000F9F0043F39F13AC0DD2341F0153008F067
:101BC0005EC08C2F8F710E94841359C0163008F0AC
:101BD00056C0F7CFDD2339F08C2F8F710E943E1352
:101BE0004EC0DD23C9F38C2F8F710E945F1347C055
:101BF000DD2329F08C2F8F710E94291340C00E9491
:101C000024133DC0DD2349F0CF718C2F0E943E1379
:101C100063E08C2F0E94401532C081E00E94551570
:101C2000123068F182E00E94551529C0DD2331F0A1
:101C3000112391F2802F0E94380B21C0112399F2B9
:101C4000093349F49FEFE7EEF3E09150E040F040B4
:101C5000E1F700C00000802F0E94DA0B10C04C2F6B
:101C60004F70602FC7010E94DA030E944F120FC00D
:101C70004C2F4F70602FC7010E94DD0308C088EF12
:101C80008C0D843020F40E948A090E946A03DD20B2
:101C9000C9F00E94B21480FD15C0F70112820E94A3
:101CA000AC140E943E13C7010E94830E0E94AC1424
:101CB000DF91CF911F910F91FF90EF90DF90CF9028
:101CC0000C945F13DF91CF911F910F91FF90EF90D4
:101CD000DF90CF9008950F931F93CF93DF93EC0184
:101CE000688179818A810E9489148C010E94DB13AA
:101CF0000E94CC12B801CE010E945A0CDF91CF9104
:101D00001F910F910895CF93DF93FC019081818102
:101D100023813481232B31F08F3F31F481E09F3FC9
:101D200019F403C081E001C080E080FD0EC0EF0126
:101D3000CF010E948303882341F0CE010E946B0EE5
:101D4000CE01DF91CF910C945103DF91CF91089593
:101D50000E94DD140E94ED140E940B1580E090E0BB
:101D60000E94EB0980E090E00C94010A8091000150
:101D7000909101010E940D170C94A80E0E94CD14A1
:101D80000C94B60EE92FE295EF704E2F50E0FA0159
:101D90003297EE30F105B0F4E65BFF4F0C949F1FD5
:101DA000803F91F018F4883E68F40EC0843F51F4EF
:101DB0000BC0883E48F0813F29F406C093FB88277A
:101DC00080F9089580E0089581E008950E947E14CE
:101DD0000E94C20E0895CF93DF9300D000D01F92CF
:101DE000CDB7DEB70F900F900F900F900F90DF914F
:101DF000CF910895CF93DF9300D000D000D0CDB71E
:101E0000DEB726960FB6F894DEBF0FBECDBFDF91CA
:101E1000CF910895CF93DF93C091AD018091AE0132
:101E2000C817A1F0D0E0CE0166E070E00E94821FEA
:101E3000FC01E155FE4F40815181628173818481B3
:101E400095810E94FA0E2196C770E8CFDF91CF915D
:101E500008954091DF015091E0016091E10170919E
:101E6000E2018091E3019091E4010C94FA0E1F933A
:101E7000CF93DF938091E40182958F7009F066C063
:101E80008091E101882309F461C02091AD01109196
:101E9000AE01C091DF01D091E001E091E201F0914B
:101EA000E30181E0CF3F09F080E0482F211709F4DA
:101EB0004DC0309721F0DF3F21F080E003C081E08A
:101EC00001C0842F30E080FD3DC0C90166E070E0B4
:101ED0000E94821FDC01A155BE4F11968C91119773
:101EE0008D1330C08C918C132DC012968C9112974B
:101EF000811128C013968D919C9114978E179F077E
:101F000008F401978E1B9F0B883C9105D8F48091B3
:101F1000E4018F7080618093E401C90166E070E0A4
:101F20000E94821FFC01EC54FE4F90819F709061D3
:101F300090838FED91E00E94830EDF91CF911F91EE
:101F40000C940A0F2F5F3F4F2770B0CFDF91CF91D6
:101F50001F910895AF92BF92CF92DF92EF92FF92BE
:101F60000F931F93CF93DF93CDB7DEB761970FB673
:101F7000F894DEBF0FBECDBF8C0185E0F801DE0115
:101F80001D9601900D928A95E1F7D8014C9111961A
:101F90002C9111971296EC905091DF016091E00125
:101FA0008091E2019091E301009731F06F3F31F4AD
:101FB00031E05F3F19F403C031E001C030E0B32FDE
:101FC000B170BB2E30FD65C1F801C380D480A090F4
:101FD000E101AA2009F4F2C03091E401C816D90643
:101FE00028F0D601A81BB90BCD0104C080959095AF
:101FF0008C0D9D1DFF24F394883C910588F0F12CF5
:10200000307F09F0A0C07C2DD98AC88A522F6E2D4E
:1020100089890E94EB0E8FED91E00E94830E31C101
:10202000832F807F09F057C0261314C0451312C0B8
:10203000FE2CE1100FC03F7030613093E4010E942C
:10204000290F8FED91E00E94830E8091E401F80149
:10205000858360C1CD2831F02F3F31F481E04F3FBF
:1020600019F403C081E001C080E080FD03C081E07D
:102070008E2502C080E090E0F82FF170FF2E80FFE7
:102080001FC0E091AD013091AE01E31709F41FC10B
:10209000F0E0CF0166E070E00E94821FDC01A155F4
:1020A000BE4F11968C911197281307C08C9148133D
:1020B00004C012968C91E81203C03196E770E5CF08
:1020C000FE2CEE2009F426C18091E401816080930A
:1020D000E401F12C1FC1261309C0451307C0E1100C
:1020E00005C08091E401F8018583A5C04D872E8746
:1020F0008D859E850E94E60E882379F1EE2069F198
:102100002091E401822F82958F7090E0029774F005
:102110008091DF019091E00198878F831986DB869B
:10212000CA862C87CE0107960E94830E86E0F801AE
:10213000AFEDB1E001900D928A95E1F70E94370F63
:102140000E94290F0DC0261771F04D872E878D85AF
:102150009E850E94E60E81111AC0C8010E94830E5E
:10216000FF24F394D7C04513F0CFE110EECF809158
:10217000E401F8018583C8010E94830E86E0EFED3B
:10218000F1E0DF011D928A95E9F7FA2CC3C0EE2039
:1021900021F32091E401822F82958F7090E00297C5
:1021A0002CF28091DF019091E0019A8389831B8258
:1021B000DD82CC822E83CE010196B6CFC816D90619
:1021C00028F0F601E81BF90BCF0104C0809590952B
:1021D0008C0D9D1D883C910550F0F12C7C2DD98AE9
:1021E000C88A522F6E2D89890E94EB0E4AC0FE2CA0
:1021F000EE2009F4B2CF261333C0451331C020912D
:10220000E40120FD24C0822F82958F70482F50E07A
:1022100041155105E1F0D80115962C9315974F30D3
:10222000510549F08F5F982F9295907F822F8F7084
:10223000892B15968C93C8010E94830E86E0F801C5
:10224000AFEDB1E001900D928A95E1F73DC086E0D7
:10225000F801AFEDB1E001900D928A95E1F75AC017
:102260004D872E878D859E850E94E60E81115ECF5B
:102270008091E40181608093E401C8010E94830E93
:1022800049C0EFEDF1E086E0DF011D928A95E9F7A4
:102290001BC0EE2009F461CF4D872E878D859E856A
:1022A0000E94E60EF82E882309F457CF86E0F80145
:1022B000AFEDB1E001900D928A95E1F78FED91E0DD
:1022C0000E94320B0E94370F0E94290F23C04D87B6
:1022D0002E878D859E850E947E14292F22952F7032
:1022E000223028F49F7039F0811105C00BC02430D2
:1022F00028F49F7049F4805E883020F0C8010E9465
:10230000830EBF2CFB2C06C0D80115969C91907FA4
:1023100091F7F8CF8F2D61960FB6F894DEBF0FBE00
:10232000CDBFDF91CF911F910F91FF90EF90DF9084
:10233000CF90BF90AF900895CF93DF93CDB7DEB726
:102340002C970FB6F894DEBF0FBECDBF4F835887D2
:1023500069877A878B879C87CE0107960E94AA0F90
:102360008823D1F09F8188852A853B85232B31F0F6
:102370008F3F31F481E09F3F19F403C081E001C039
:1023800080E080FD6FC04F81588569857A858B8597
:102390009C850E94FA0E66C086E0FE013796DE013B
:1023A000119601900D928A95E1F7FF81E8856A8583
:1023B0007B856115710531F0EF3F31F481E0FF3F1E
:1023C00019F403C081E001C080E080FD4BC0809122
:1023D000AE0190E09C012F5F3F4F27703327409163
:1023E000AD0150E02417350709F443C0F983EA83AF
:1023F0007D836C8366E070E00E94821FDC01A15542
:10240000BE4F96E0FE01319601900D929A95E1F74C
:102410002093AE010E940A0F25C090E066E070E0B4
:102420000E94821F81559E4F0E94AA0F882371F13E
:102430008091AD0190E066E070E00E94821FFC0197
:10244000E155FE4F40815181628173818481958184
:102450000E94FA0E8091AD0190E001968770992755
:102460008093AD018091AD019091AE018913D5CFDC
:102470000DC00E94BE0E1092AE011092AD01EFEDA4
:10248000F1E086E0DF011D928A95E9F72C960FB600
:10249000F894DEBF0FBECDBFDF91CF910895EF92CC
:1024A000FF920F931F93CF93DF938C01892B09F435
:1024B0006CC0F12CEE24E394E8012196F80184919C
:1024C000843740F4843008F051C0813081F082308C
:1024D00019F15BC0853709F444C0A8F19CE7980F57
:1024E000903708F052C08F770E94DA0B41C00E5F20
:1024F0001F4FFE01849190E2980F983050F487703E
:10250000FE2D01C0FF0F8A95EAF78F2F0E94E0147D
:1025100014C00E94380B2DC00E5F1F4FFE01849126
:1025200090E2980F983060F48770FE2D01C0FF0F85
:102530008A95EAF78F2F0E94E6140E940B1519C0A6
:102540000E94DA0B16C00E5F1F4FFE01C491CC2310
:1025500081F08FE99FE00197F1F700C00000C150C2
:10256000F6CF0E5F1F4FFE01F49003C00E94380BA0
:102570008E018F2D882309F49FCFEFE9FFE031977B
:10258000F1F700C000008150F5CFDF91CF911F918E
:102590000F91FF90EF900895089508950C94CD1237
:1025A0000C94CE120E94D012609316027093170200
:1025B00080931802909319020C94A80E0C94D212D6
:1025C0000F931F9300911602109117022091180289
:1025D00030911902602B712B822B932B1F910F913D
:1025E0000C94D2120F931F930091160210911702B0
:1025F00020911802309119026023712382239323C2
:102600001F910F910C94D2120F931F9300911602F9
:10261000109117022091180230911902602771273A
:10262000822793271F910F910C94D2120C94CD12F4
:102630000E94161360931202709313028093140287
:10264000909315020C94A80E60E070E0CB010C94FE
:1026500018130F931F9341E050E060E070E08A018F
:102660009B0104C0000F111F221F331F8A95D2F750
:10267000C901B8011F910F910C9418130F931F9368
:1026800041E050E060E070E004C0440F551F661F59
:10269000771F8A95D2F78091120290911302A09130
:1026A0001402B09115028A019B01082B192B2A2BC9
:1026B0003B2BC901B8011F910F910C9418130F9374
:1026C0001F9341E050E060E070E004C0440F551FEC
:1026D000661F771F8A95D2F7409550956095709543
:1026E0008091120290911302A0911402B0911502F0
:1026F0008A019B01082319232A233B23C901B8011E
:102700001F910F910C9418130F931F9341E050E009
:1027100060E070E004C0440F551F661F771F8A9564
:10272000D2F78091120290911302A0911402B091FD
:1027300015028A019B01082719272A273B27C9016F
:10274000B8011F910F910C9418130F931F930091D0
:102750001202109113022091140230911502602B85
:10276000712B822B932B1F910F910C9418130F93A5
:102770001F930091120210911302209114023091C4
:10278000150260237123822393231F910F910C94D0
:1027900018130F931F9300911202109113022091AE
:1027A00014023091150260277127822793271F9109
:1027B0000F910C9418130895282F362F892F6EE04F
:1027C0000E94791F820F982F9770A1E001C0AA0F75
:1027D0009A95EAF786958695869590E065E070E093
:1027E0000E94821FFC01EB51FE4F40E050E0632F3E
:1027F00070E090819B01042E02C0369527950A94C3
:10280000E2F72170219529272A23292721934F5F59
:102810005F4F4530510569F70895282F892F6EE0E5
:102820000E94791F820FA82FA7708695869586959E
:1028300090E065E070E00E94821FBC0140E050E043
:1028400080E0FB01E40FF51FEB51FE4F208130E0EB
:102850000A2E02C0369527950A94E2F72170332795
:10286000042E01C0220F0A94EAF7822B4F5F5F4FBC
:102870004530510531F70895BF92CF92DF92EF9224
:10288000FF920F931F93CF93DF938C01C09012029E
:10289000D0901302E0901402F0901502809116027D
:1028A00090911702A0911802B0911902C82AD92A52
:1028B000EA2AFB2ACFE1D0E0D701C6010C2E04C0E2
:1028C000B695A795979587950A94D2F780FD04C091
:1028D000219790F7B12C07C0BC2EB8018C2F0E9415
:1028E00001040197A9F38B2DDF91CF911F910F91D7
:1028F000FF90EF90DF90CF90BF900895CF93DF933C
:10290000EC010E943C14BE010E940104DF91CF91B2
:1029100008951F93CF93DF93EB019091AC0199231E
:1029200021F0CB010E947E1413C0882349F0CB0113
:102930000E943C14182F682FCE010E94DC1304C0A3
:10294000CB010E940D14182FBE01812F0E9401049B
:10295000DF91CF911F91089580911A0285958595F9
:102960008595089580911A028770089590911A02B2
:10297000977081E009F480E0089580913E02089507
:1029800090913E02892B80933E020895809590910C
:102990003E02892380933E02089510923E020895DC
:1029A00090913D02892B80933D02089580959091EE
:1029B0003D02892380933D02089510923D020895BF
:1029C00090913C02892B80933C02089580959091D0
:1029D0003C02892380933C02089510923C020895A2
:1029E00080911B02089508950C94F3140C94F41430
:1029F00090911B02981721F080931B020C94F614FF
:102A0000089580911B02882329F010921B0280E018
:102A10000C94F6140895E0910001F0910101809169
:102A20003E028083E0910001F0910101908180914C
:102A30003D02892B8083E0910001F091010190819A
:102A400080913C02892B808380911B02882381F036
:102A5000E0910001F09101019081892B80838091A8
:102A60000001909101010E943F1681110E94011501
:102A700080910001909101010C9496090C94F3143B
:102A8000982F990F990F990F692B60931A020E9442
:102A90003E1380911A028595859585950C943E1577
:102AA00010921A0280E00C943E1520911A02809533
:102AB000822380931A02982F977079F430E0482F80
:102AC000082E000C550B2417350739F08595859590
:102AD00085950E945F130C9450150895909393016F
:102AE0008093920108958295982F9373292F220F36
:102AF000220F982F9C7C96959695922B892F857501
:102B0000880F9A7A9695892B0895CF93DF93D92FC2
:102B10000E947315C82F8D2F0E9473152C2F30E043
:102B2000322F2227A901482BCA01DF91CF910895A6
:102B300080E090E00E94AD1F21E08C3E9E4F09F0A6
:102B400020E0822F089582E090E00C94A51F83E09E
:102B500090E00C94A51FCF9384E090E00E94A51F05
:102B6000C82F81E290E00E94A51F2C2F30E0A90120
:102B7000582BCA01CF910895CF93C92F682F84E0B5
:102B800090E00E94B31F6C2F81E290E0CF910C94F3
:102B9000B31FAB01BC018FE090E00C94C51FAB01EB
:102BA000BC0183E190E00C94C51F60E070E0CB01B4
:102BB0000C94CF1560E070E0CB010E94C9150C9415
:102BC000D5156CEE7EEF80E090E00E94D11F60E0B2
:102BD00082E090E00E94B31F60E083E090E00E94FA
:102BE000B31F109216021092170210921802109240
:102BF000190260E084E090E00E94B31F60E081E28F
:102C000090E00E94B31F60E085E090E00E94B31F57
:102C100060E086E090E00E94B31F6FEF87E090E0F5
:102C20000E94B31F40E050E0BA0188E090E00E94AB
:102C3000C51F60E08DE090E00E94B31F40E050E0CF
:102C4000BA0188E190E00E94C51F60E087E190E052
:102C50000E94B31F40E050E0BA018CE190E00E9476
:102C6000C51F60E080E290E00E94B31F0C94DA156B
:102C70000C94E115682F8EE090E00C94B31FFC01DA
:102C8000329680910C01882331F080917F0287FF7A
:102C900002C09EE101C096E080E0915028F02191B1
:102CA0002223D9F38F5FF9CF0895662351F1209144
:102CB0000C012223E9F020917F0227FF19C0462F43
:102CC0004695469546954E31E0F4677021E030E038
:102CD00002C0220F331F6A95E2F7FC01E40FF11DD9
:102CE000828190E02823392381E0232B69F409C0F5
:102CF000FC01329608962191621729F0E817F9072E
:102D0000D1F780E0089581E008959C01FC0132969E
:102D10009FEF80E04191461789F09F3F19F44111E0
:102D200001C0982F8F5F8630A9F79F3F39F0F901D6
:102D3000E90FF11D97FDFA956283089508959C01AE
:102D40002A5F3F4FFC014281461301C01282019667
:102D500082179307B9F70895262F2695269526956D
:102D60002E3170F4FC01E20FF11D677021E030E0BC
:102D700001C0220F6A95EAF78281282B22830895E9
:102D800080913F0280FF0CC01F926F9388E792E012
:102D90009F938F930E9400030F900F900F900F90BE
:102DA0000895262F2695269526952E3178F4FC0138
:102DB000E20FF11D677021E030E001C0220F6A953B
:102DC000EAF72095828128232283089580913F028B
:102DD00080FF0CC01F926F938AE592E09F938F93C0
:102DE0000E9400030F900F900F900F900895209174
:102DF0000C01222329F020917F0227FD0C94AC16B0
:102E00000C94851620910C01222329F020917F0239
:102E100027FD0C94D1160C949F1620910C01FC01F7
:102E20003296222331F080917F0287FF02C08EE12B
:102E300001C086E0DF011D928A95E9F708950895A3
:102E40000C941F170C941F17CF930E9422170E94F7
:102E50009C060E942017C0E08C2F0E94F105892B50
:102E600029F4CF5FC530C1F780E001C081E0CF9188
:102E700008950C941F170C9439170E943B178091EA
:102E80008502843049F11092400220E488E190E00C
:102E90000FB6F894A895809360000FBE2093600051
:102EA00080E00E946A030E943B1783B7817F8460A1
:102EB00083BF83B7816083BF7894889583B78E7F03
:102EC00083BF0FB6F894A8958091600088618093C5
:102ED0006000109260000FBE08950C941F170E94AE
:102EE000BE0E0E948A090E946A030C946D171F92FD
:102EF0000F920FB60F9211248F939F93AF93BF93AE
:102F000080914002811113C080917B0290917C02DC
:102F1000A0917D02B0917E024196A11DB11D8093CA
:102F20007B0290937C02A0937D02B0937E02BF91BE
:102F3000AF919F918F910F900FBE0F901F9018959A
:102F400082E084BD93E095BD9AEF97BD80936E00BB
:102F500008952FB7F89480917B0290917C02A09104
:102F60007D02B0917E022FBF0895CF92DF92EF9243
:102F7000FF920F931F932FB7F89440917B025091CB
:102F80007C0260917D0270917E022FBF6A017B01FD
:102F9000EE24FF248C0120E030E0C016D106E206CA
:102FA000F30610F4415051099A01281B390BC9014D
:102FB0001F910F91FF90EF90DF90CF90089578943C
:102FC0001F920F920FB60F9211248F939F93AF937E
:102FD000BF9380917B0290917C02A0917D02B09181
:102FE0007E020196A11DB11D80937B0290937C020D
:102FF000A0937D02B0937E02BF91AF919F918F917C
:103000000F900FBE0F901F90189581E08093E00005
:1030100080E28093D8001092C9008FE19EE401976E
:10302000F1F700C0000087E090EBDC0180938E0296
:1030300090938F02A0939002B09391029CE088E15C
:103040000FB6F894A895809360000FBE909360002F
:10305000FFCF0E949815811102C00E9438160E946D
:10306000A31580933F020E94AB159093800280933A
:103070007F020E94A715682F70E080E090E00C941A
:10308000DE1280916402089508959FB7F89410921B
:1030900043029FBF90918502943009F057C09091F0
:1030A000E9009F703091EC00232F217030FD20E863
:1030B000922B23E02093E9002091EB0020FF43C0F6
:1030C0002091EE0027FF3FC020914102222321F0F2
:1030D0002091E80025FF37C01092410226E0309190
:1030E000E80035FD15C030918502343061F530912E
:1030F000EB0035FD28C0215021F481E0809341028E
:1031000022C0EFE9FFE03197F1F700C00000E7CF00
:103110008093F1008091E80085FD0AC08091E8006D
:1031200080FFFCCF8091E8008E778093E80006C096
:103130008FB7F89421E0209343028FBF9F70909344
:10314000E90080E008959F709093E9008FEF089563
:10315000CF93DF9300D01F92CDB7DEB79091850259
:10316000943019F589837B836A8382E08093E90038
:103170008FEF9091E800815095FD06C095ED9A95EE
:10318000F1F700008111F5CF8091E80085FF0DC0B7
:1031900040E050E063E070E0CE0101960E941D1B0C
:1031A0008091E8008E778093E8000F900F900F9049
:1031B000DF91CF910895CF93DF93EC010E94001B24
:1031C000823011F0843031F4BE0184E0DF91CF9180
:1031D0000C94A818DF91CF910895BC0183E00C9462
:1031E000A818CF93DF93EC010E94001B823011F0EE
:1031F0008430D9F580910C01882339F080917F02C9
:1032000087FF03C060E282E002C068E081E0809353
:10321000E9008FEF9091E800815095FD06C095ED93
:103220009A95F1F700008111F5CF8091E80085FFB4
:103230001CC080910C01811105C040E050E068E0A5
:1032400070E003C070E040E050E0CE010E941D1B22
:103250008091E8008E778093E80080E2FE01A4E48C
:10326000B2E001900D928A95E1F7DF91CF91089538
:1032700083EB92E00C9467028FEA92E00C94670271
:103280008BEA92E00E9467020C946F172091420231
:103290002F5F822F62E30E94931F992319F02093DE
:1032A000420208951092420280914302882371F1F4
:1032B00080918502843041F58091E9008F702091E2
:1032C000EC00922F917020FD90E8892B93E0909371
:1032D000E9009091EB0090FF14C09091EE0097FFF1
:1032E00010C09091E80095FF03C01092F100F9CF53
:1032F0009091E80090FF05C09091E8009E77909330
:10330000E8008F708093E90010924302089542E034
:1033100061EC81E00E94211C42E261EC82E00E94AB
:10332000211C42E261EC83E00C94211C8091870215
:10333000833009F45CC030F4813071F0823009F4DC
:1033400095C008958A3009F481C08B3009F467C0B4
:10335000893009F0A3C020C080918602813A09F02B
:103360009DC08091E800877F8093E80080918A0269
:1033700090918B02892B21F460E284E492E003C0F7
:1033800060E080E090E070E00E94681B8091E800BF
:103390008B778093E800089580918602813209F04E
:1033A0007DC080918A0290918B02029708F076C0CE
:1033B0008091E800877F8093E8008091E80082FD9B
:1033C00005C0809185028111F8CF68C08091F2001C
:1033D000823029F48091F1008B7F813021F480913B
:1033E000F100809364028091E8008B7753C0809154
:1033F0008602813A09F052C080918A0290918B0234
:10340000892B09F04BC08091E800877F8093E8000A
:103410008091E80080FFFCCF80910C0136C0809144
:1034200086028132D9F580918A0290918B02892B94
:10343000A9F58091E800877F8093E8000E94561CE0
:103440008091880280930C010C94BE0E80918602BC
:10345000813221F58091E800877F8093E8000E9407
:10346000561C80918902809365020895809186029E
:10347000813AA1F48091E800877F8093E8008091F1
:10348000E80080FFFCCF809165028093F10080917D
:10349000E8008E778093E8000C94561C089584B75A
:1034A000877F84BF0FB6F894A895809160008861EB
:1034B00080936000109260000FBE90E080E80FB62D
:1034C000F89480936100909361000FBE0E94200ADF
:1034D0000E94A81C0E94FB1C8091E20084608093E3
:1034E000E20085E498E10E946E1578940E945E1FC8
:1034F0000E94260A82E091E00E9485098AE992E012
:103500000E94670280918502853089F486E992E005
:103510000E9467020E943D1780918302882391F3E5
:103520000E942417882371F30E94071BEBCF0E948F
:10353000560AE8CF0C949C1A292F332723303105E3
:10354000C9F060F42130310581F02230310509F0F5
:1035500047C08BE590E027EE32E046C021323105CE
:1035600011F12232310561F13BC082E190E022E4A9
:1035700033E03AC099278130910561F040F0823004
:10358000910559F0039761F5E7EBF2E008C0E3EE2F
:10359000F2E005C0EDECF2E002C0EDEBF2E0849168
:1035A00090E09F0121C063307105D0F4660F771F52
:1035B000FB01E557FE4F2081318189E090E014C086
:1035C0006330710568F4FB01EE0FFF1FEB57FE4FF0
:1035D00020813181FB01EE57FE4F808190E004C0D5
:1035E00080E090E020E030E0FA013183208308950C
:1035F00080918502843011F081E0089582E0089581
:1036000080916602811102C00C94F81A089584E03A
:1036100089BD86E089BD09B400FEFDCF8091D80048
:103620008F7D8093D8008091E00082608093E000DD
:103630008091E00081FDFCCF0895CF92DF92EF9260
:10364000FF920F931F93CF93DF93EC018B017A01CD
:103650000E94751C811133C0E114F10439F0F701A7
:1036600080819181081B190BC80FD91FC12CD12C47
:103670000115110519F18091E80085FD16C08091B2
:10368000E8008E778093E800E114F10449F0F70137
:1036900080819181C80ED91ED182C08285E00FC081
:1036A0000E94751C882321F30AC089918093F10040
:1036B00001501109FFEFCF1ADF0ADACF80E0DF9166
:1036C000CF911F910F91FF90EF90DF90CF900895D1
:1036D00020918C0230918D022617370748F0611532
:1036E000710539F42091E8002E772093E80001C09D
:1036F000B901FC0120E06115710561F1809185023D
:103700008823D9F18530D9F18091E80083FD39C053
:103710008091E80082FD2BC08091E80080FFEBCF14
:103720008091F20090E06115710551F088309105AB
:1037300038F421912093F100615071090196F3CF83
:1037400021E0089709F020E08091E8008E778093CF
:10375000E800D1CF2111D2CF0AC080918502882301
:1037600061F0853061F08091E80083FD0AC08091AE
:10377000E80082FFF2CF80E0089582E0089583E0C0
:10378000089581E0089520918C0230918D022617D2
:10379000370748F06115710539F42091E8002E775C
:1037A0002093E80001C0B901FC0120E0611571051A
:1037B00079F180918502882309F43DC0853009F4B0
:1037C0003CC08091E80083FD3AC08091E80082FD12
:1037D0002CC08091E80080FFE9CF8091F20090E05A
:1037E0006115710559F08830910540F424912093BA
:1037F000F1003196615071090196F2CF21E00897EE
:1038000009F020E08091E8008E778093E800CECF29
:103810002111CFCF0AC080918502882361F08530C5
:1038200061F08091E80083FD0AC08091E80082FF8A
:10383000F2CF80E0089582E0089583E0089581E06A
:103840000895982F953068F59093E900981739F00E
:103850007091EC002091ED005091F00003C0242FF6
:10386000762F50E021FD02C09F5FECCF3091EB003E
:103870003E7F3093EB003091ED003D7F3093ED00C3
:103880003091EB0031603093EB007093EC002093AB
:10389000ED005093F0002091EE0027FDE5CF80E091
:1038A00008958F708093E90081E0089580918602E9
:1038B00087FF11C08091E80082FD05C080918502DC
:1038C0008111F8CF11C08091E8008B770BC08091F7
:1038D0008502882349F08091E80080FFF8CF80912D
:1038E000E8008E778093E80008952091E4003091FD
:1038F000E50095E64091EC00842F817040FF23C0E5
:103900008091E80080FD1DC080918502882399F098
:10391000853099F08091EB0085FD11C04091E40065
:103920005091E5002417350729F3915011F09A01C1
:10393000E1CF84E0089582E0089583E0089581E076
:10394000089580E008954091E80042FFDDCF08959A
:103950000E94051D0E94081DE0EEF0E0808181605C
:103960008083E8EDF0E080818F77808319BCE3E607
:10397000F0E08081816080831092840208950E942B
:10398000051D0E94081D8091D8008F778093D80074
:103990008091D80080688093D8008091D8008F7D76
:1039A0008093D80084E089BD86E089BD09B400FE1B
:1039B000FDCF109285021092810210928302109224
:1039C000820242E060E080E00E94211C8091E100E0
:1039D0008E7F8093E1008091E20081608093E2001D
:1039E0008091E20088608093E2008091E0008E7F09
:1039F0008093E0000895E3E6F0E080818E7F80838D
:103A000081E0809384020C94BF1C1092E200089520
:103A10001092E10008951F920F920FB60F92112499
:103A20002F933F934F935F936F937F938F939F93C6
:103A3000AF93BF93EF93FF938091E10082FF0BC0A0
:103A40008091E20082FF07C08091E1008B7F80932C
:103A5000E1000E9446198091E10080FF19C0809129
:103A6000E20080FF15C08091E2008E7F8093E2002B
:103A70008091E20080618093E2008091D8008062B2
:103A80008093D80019BC85E0809385020E943C1980
:103A90008091E10084FF30C08091E20084FF2CC05F
:103AA00084E089BD86E089BD09B400FEFDCF809128
:103AB000D8008F7D8093D8008091E1008F7E809325
:103AC000E1008091E2008F7E8093E2008091E2002D
:103AD00081608093E20080918102882311F084E06C
:103AE00007C08091E30087FD02C081E001C083E050
:103AF000809385020E9440198091E10083FF29C0D4
:103B00008091E20083FF25C08091E100877F809350
:103B1000E10082E080938502109281028091E100B1
:103B20008E7F8093E1008091E2008E7F8093E2009F
:103B30008091E20080618093E20042E060E080E0FA
:103B40000E94211C8091F00088608093F0000E9408
:103B50003819FF91EF91BF91AF919F918F917F9114
:103B60006F915F914F913F912F910F900FBE0F90EA
:103B70001F9018951F920F920FB60F9211242F933A
:103B80003F934F935F936F937F938F939F93AF93E5
:103B9000BF93CF93DF93EF93FF93C091E900CF7072
:103BA0008091EC00D82FD17080FDD0E81092E90010
:103BB0008091F000877F8093F00078940E94FE1D32
:103BC0001092E9008091F00088608093F000CD2B86
:103BD000CF70C093E900FF91EF91DF91CF91BF913A
:103BE000AF919F918F917F916F915F914F913F9195
:103BF0002F910F900FBE0F901F9018951F93CF938A
:103C0000DF93CDB7DEB7AA970FB6F894DEBF0FBE2D
:103C1000CDBFE6E8F2E08091F100819322E0EE383A
:103C2000F207C9F70E9496198091E80083FF2EC120
:103C30008091860290918702492F50E04A305105C9
:103C400008F024C1FA01E85AFF4F0C949F1F8038F6
:103C500021F0823809F01AC108C080918202909147
:103C60008302992389F082600FC080918A028F704D
:103C7000853008F00BC18093E9008091EB0085FB53
:103C8000882780F91092E9009091E800977F90933F
:103C9000E8008093F1001092F100D1C0282F2D7F11
:103CA00009F0F4C0882319F0823061F0EFC08091F0
:103CB0008802813009F0EAC0933009F080E08093F7
:103CC00083022EC08091880281112AC080918A02CD
:103CD0008F702FEF280F243008F0D8C08093E900B0
:103CE0002091EB0020FF1CC0933021F48091EB0069
:103CF000806214C09091EB0090619093EB0021E002
:103D000030E0A90102C0440F551F8A95E2F74093A5
:103D1000EA001092EA008091EB0088608093EB004B
:103D20001092E9008091E800877F8093E8000E946C
:103D3000561CACC08111AAC0109188021F778091D7
:103D4000E3008078812B8093E3008091E800877FF7
:103D50008093E8000E94561C8091E80080FFFCCF11
:103D60008091E30080688093E300111102C082E03B
:103D700001C083E08093850289C08058823008F0BA
:103D800085C080918802909189028C3D53E095070F
:103D900079F583E08A838AE289834FB7F894DE015C
:103DA000139620E03EE051E2E32FF0E050935700FD
:103DB000E49120FF03C0E295EF703F5FEF708E2F1C
:103DC00090E0EA3010F0C79601C0C0968D939D93A5
:103DD0002F5F243149F74FBF8091E800877F8093A0
:103DE000E8006AE270E0CE0101960E94681B16C0EE
:103DF00060918A0270918B02AE014F5F5F4F0E940B
:103E00009A1ABC01892B09F441C09091E800977F70
:103E10009093E80089819A810E94C31B8091E800F9
:103E20008B778093E80032C0803881F58091E8007C
:103E3000877F8093E800809181028093F1008091D8
:103E4000E8008E7772CF811121C080918802909115
:103E5000890299270297D4F48091E800877F8093A4
:103E6000E80080918802809381020E94561C809114
:103E70008102811106C08091E30087FD02C081E0CC
:103E800001C084E0809385020E9487198091E80038
:103E900083FF0AC08091E800877F8093E8008091CB
:103EA000EB0080628093EB00AA960FB6F894DEBF19
:103EB0000FBECDBFDF91CF911F910895CF93809119
:103EC00085028823A1F0C091E900CF709091EC00A9
:103ED000892F817090FD80E8C82B1092E9008091B5
:103EE000E80083FD0E94FE1DCF70C093E900CF91D2
:103EF0000895002480FD060E660F11F08695D1F717
:103F0000802D08950024552704C0080E591F880FDE
:103F1000991F009729F076956795B8F37105B9F761
:103F2000802D952F0895991B79E004C0991F96174D
:103F300008F0961B881F7A95C9F780950895EE0FB3
:103F4000FF1F0590F491E02D0994F999FECF92BDE1
:103F500081BDF89A992780B50895A8E1B0E042E0C4
:103F600050E00C94D91F262FF999FECF92BD81BD48
:103F7000F89A019700B4021639F01FBA20BD0FB6A7
:103F8000F894FA9AF99A0FBE08950396272F0E9483
:103F9000B41F0E94B31F252F0E94B41F242F0C941E
:103FA000B41F0196272F0E94B41F0C94B31FDC018D
:103FB000CB01FC01F999FECF06C0F2BDE1BDF89A34
:103FC000319600B40D9241505040B8F70895F894DE
:023FD000FFCF21
:103FD2001C024118F1184418ED18DB1801E200E93F
:103FE20000EA00B500B600B700CD008301CC008A1C
:103FF20001920194012102230224022502260227B2
:10400200022A02B300B4006F007000818283909193
:104012009293949596973031323334356264656663
:1040220067E200E900EA00B500B600B700CD008300
:1040320001CC008A0192019401210223022402256B
:1040420002260227022A02B300B4006F0070008128
:104052008283406D22E30376035403F90212032B99
:02406200030059
:00000001FF
