:100000000C9432020C947B020C947B020C947B02C5
:100010000C947B020C947B020C947B020C947B026C
:100020000C947B020C947B020C947B020C94FA1BC4
:100030000C94A91C0C9416160C947B020C947B0255
:100040000C947B020C947B020C947B020C947E1625
:100050000C947B020C947B020C947B020C947B022C
:100060000C947B020C947B020C947B020C947B021C
:100070000C947B0205040704120409040B040D040C
:100080000F04110414041604180423041A041C0495
:100090001E04200422042504E20BE20B140C140CB1
:1000A000520CA00DA00DA00D720CA00D1F0D1F0D68
:1000B000900DA00DA00D990D2C0D2C0D2C0D2C0DBF
:1000C0002C0D2C0D2C0D2C0D2C0D2C0D2C0D2C0D68
:1000D0002C0D2C0D2C0D2C0D3D0D4B0D520D590DD5
:1000E000630D2B0E2B0E3D0E3D0E340E3D0E3D0EC0
:1000F0003D0E2B0E2B0E390E3D0E3D0E390E161DEC
:100100003D1D2F1E3D1D2F1E891DAC1D2F1E021EC5
:10011000111E29001E001F002000210022002300C4
:1001200024002500260027002D002E0031002B0082
:1001300014001A000800150017001C0018000C001D
:10014000120013002F0030000000E300040016002E
:10015000070009000A000B000D000E000F0033001D
:10016000340032002800E10064001D001B0006007E
:100170001900050011001000360037003800520049
:10018000E500E000E300E200000000002C000000B9
:1001900000000000E6000151500051004F00350002
:1001A0003A003B003C003D003E003F004000410063
:1001B00042004300440045004C00390001000100AA
:1001C000010001000100010001000100AC00AE00CF
:1001D000AB0001000000005C010001000100010013
:1001E0000100010001000100010001000100010007
:1001F00058000100010001000100010001000100A0
:100200000100A800010001000100A9008400010014
:1002100001000100000000000100000000000000DB
:10022000E30000004B00AA004E0044454255473A07
:1002300020656E61626C65642E0A000A002530310B
:100240003662003A200025303258000A722F6320AF
:1002500030313233343536373839414243444546FC
:100260000A000A002530325820006B6579626F6100
:1002700072645F7265706F72743A20000A002530F4
:100280003258006B6579626F6172645F7365745F89
:100290006C65643A200064656C5F6B65795F6269C8
:1002A000743A2063616E27742064656C3A202530AF
:1002B00032580A006164645F6B65795F6269743A01
:1002C0002063616E2774206164643A2025303258BF
:1002D0000A005B735D004B6579626F617264207325
:1002E000746172742E0A005B575D005B535D005BA6
:1002F000525D000403300000000E03530068006FDD
:100300000072007400790000001403530068006953
:10031000006B003300690049004E004300000004F8
:1003200003090409025B00030100A0FA09040000AC
:10033000010301010009211101000122400007050C
:10034000810308000A0904010001030000000921DB
:10035000110100012271000705820320000A09042F
:100360000200020300000009211101000122220005
:100370000705830320000107050303200001120184
:10038000100100000008EDFE2440010001020301FD
:100390000631FF0974A1010975150026FF0095209B
:1003A000750881020976150026FF009520750891D1
:1003B00002C005010980A101850316010026030082
:1003C0001A81002A8300751095018100C0050C096F
:1003D00001A1018504160100269C021A01002A9C35
:1003E00002751095018100C005010906A10185056E
:1003F000050719E029E71500250195087501810217
:1004000005081901290595057501910295017503E6
:1004100091010507190029EF1500250195F07501D7
:100420008102C005010906A101050719E029E715A8
:100430000025019508750181029501750881010566
:10044000081901290595057501910295017503911A
:10045000010507190029FF150026FF0095067508FC
:100460008100C00011241FBECFEFD4E0DEBFCDBF9E
:1004700004B603FE29C08091310290913202A0910E
:100480003302B09134028730904BA740B04BE1F477
:100490001092310210923202109233021092340202
:1004A00014BE84B7877F84BF0FB6F894A895809157
:1004B0006000886180936000109260000FBEE09140
:1004C0002002F0912102099411E0A0E0B1E0E4EAF9
:1004D000FDE302C005900D92A033B107D9F722E0E9
:1004E000A0E3B1E001C01D92A133B207E1F70E9481
:1004F00033190C94D01E0C940000FF93EF93E091FD
:100500003001F0913101309709F00995EF91FF9199
:100510000895FC018591803011F0EFDFFBCF089545
:10052000FF27E0E230E247FF0CC0419597FF09C08A
:10053000EDE26095709580959095611D711D811D0E
:10054000911D27FF02C0219530E350E2AA27660FD4
:10055000771F881F991FAA1FA41710F0A41B63956B
:100560005A95A9F7AA3008F0A95FA05DAF93F3955B
:10057000611571058105910541F7ED3211F4EF9395
:10058000F395F21718F43F93F395FBCF8F91B5DFF6
:10059000FA95E1F70895E991F9918591803021F07C
:1005A000853219F0AADFF9CF089520E0E89455913B
:1005B0005532C1F3503311F4689455915A3348F4CD
:1005C000505390F3220F022E220F220F200D250FE1
:1005D000F4CF0EF4219589919991533619F353373D
:1005E00029F1533559F1BC0188279927E8945C36E5
:1005F00021F48991999168945591543639F446EFD4
:100600007EF077FF0DC08FEF9FEF0AC055374AE0AD
:1006100039F0583540E121F0523642E009F00895B2
:10062000FF93EF937DDFEF91FF91B7CFFF93EF93B0
:10063000FC0181918030B9F360DFFBCFFF93EF9332
:1006400068DFF1CFDF93CF93CDB7DEB72596A3DF79
:10065000CF91DF9108950C9446070C9447070C94B2
:1006600035030C94410381E0089581E008950E94D0
:10067000A214811102C00E9410150C942B030C943B
:100680002D0308950C94310308950E94190E0E94C1
:1006900044032FEF84E39CE0215080409040E1F739
:1006A00000C000000C94A416FF920F931F93CF93E9
:1006B000DF938C01FC01C081D181809161018111A6
:1006C00013C08281882349F0CE010E946413F82E62
:1006D000682FCE010E94031304C0CE010E9435137F
:1006E000F82EBE018F2D04C0CE010E946413BE01FE
:1006F0000E94D904EC01B8010E942F03882309F459
:100700004DC1C63DFCE5DF0709F4AFC0B0F4C5310B
:10071000ECE5DE0768F4C230FCE5DF0708F053C003
:10072000C1158CE5D80701F1C130DC4529F129C19B
:10073000C631DC4509F4FEC024C1CB3D8CE5D807A9
:1007400091F150F4C73DFCE5DF0709F4B1C0C83DA5
:10075000DC4509F4D4C015C1CC3DECE5DE0751F110
:10076000CD3DDC45C1F00DC1F8018281882309F43B
:1007700015C10E94450312C1F8018281882309F442
:100780000DC18091F40181608093F4018AE292E0CE
:100790000E94890203C1F8018281882309F4FEC006
:1007A0000E941015FBC0F8018281882309F4F6C06D
:1007B00080E006C0F8018281882309F4EFC082E05E
:1007C0000E94DB19EBC0F8018281882309F4DEC0A6
:1007D0000E94A214811102C00E9410150E94B5143B
:1007E00090E09093230280932202FE01E350FC45A7
:1007F000E231F10530F4E65CFF4F809122020C9467
:10080000881E80912202816027C0826025C084609A
:1008100023C0806121C080621FC080641DC08068C9
:100820001BC08460886018C08E7F16C08D7F14C086
:100830008B7F12C08F7E10C08F7D0EC08F7B0CC04F
:100840008F770AC08B7F877F07C087FB222720F91D
:1008500091E0922790FB87F98093220280912202F7
:100860000E94B9140E94190E99C0F8018281882350
:1008700051F0109237010E944816909334018093F2
:10088000330182E022C08091370181110FC0809135
:100890003301909134010E945416883C910530F444
:1008A00086E20E94480A86E20E943F0B82E024C052
:1008B000F8018281882361F0109238010E94481665
:1008C000909336018093350180E20E949E0B66C0B2
:1008D0008091380181110FC08091350190913601CE
:1008E0000E945416883C910530F487E20E94480A21
:1008F00087E20E943F0B80E20E94A50B4FC0F801E7
:1009000082818111D9CF809138018111F4CF8091FA
:100910003501909136010E945416883C910558F794
:1009200080E20E94A50B88E20E94480A88E20E94A9
:100930003F0B34C00E943514282FF801828140916A
:10094000000150910101882379F02A7A91E009F49D
:1009500090E090933201911102C069E201C065E319
:10096000CA010E9499150AC080913201811102C00A
:1009700069E201C065E3CA010E94A4150E94021445
:100980000DC081E08093370180933801C801DF9169
:10099000CF911F910F91FF900C94330380E0DF9172
:1009A000CF911F910F91FF90089580E090E00895FE
:1009B00008959B0190E066E470E00E946B1EFC01CC
:1009C000832F90E06EE070E00E946B1E8E0F9F1FE1
:1009D000FC01E20FF11DEE0FFF1FEE5EFE4F859151
:1009E00094910895880F991FFC01E55CFD4F859156
:1009F00094910895CF93DF930E94D9040E94A60694
:100A0000EC01811520E5920708F03FC0811530E424
:100A1000930708F01EC1883E910500F5803E9105C0
:100A200008F090C1883A910570F4853A910508F074
:100A3000A0C08130910509F485C108F43CC1049738
:100A400008F080C138C18D3B910508F49DC0803C01
:100A5000910508F430C1805C9109EDC0C11580E2B8
:100A6000D80758F4C11591E0D90708F06BC1C03F11
:100A7000D10508F420C1D06565C1C11520E3D207B6
:100A800008F0DDC0CE019F70D6C0811535E5930713
:100A900008F047C0C11584E5D80708F0F3C0C115B8
:100AA00092E5D90718F5C11521E5D20708F0D4C0A1
:100AB0002C2F237081E090E002C0880F991F2A95A7
:100AC000E2F79C689E01F4E036952795FA95E1F7E8
:100AD0002370922BCF70C695C695D0E0A5E0CC0FC1
:100AE000DD1FAA95E1F7C82BD92B2CC18C2F869539
:100AF00086959E0123703327C115D34508F0B1C0F8
:100B000090E075E0880F991F7A95E1F7C1E0D0E099
:100B100002C0CC0FDD1F2A95E2F7C82BD92BDC6869
:100B200011C1811529E5920780F4811538E59307F5
:100B300008F0ADC0C11586E5D80708F0BCC0CF717C
:100B4000DD27DC2FCC27D062FDC0C1159AE5D9077F
:100B500008F4A2C0CE0190568115904208F0ABC0B7
:100B60008D2F8F710E942307DD27D0628F71D82BC4
:100B7000E9C0853A910509F4A1C0863A910509F0CA
:100B8000A0C0C2E8D0E4DEC0883A910509F49CC058
:100B9000893A910509F49BC08A3A910509F49AC0F3
:100BA0008B3A910509F499C08C3A910509F498C0E3
:100BB0008B3B910509F497C08C3B910509F496C0D5
:100BC0008D3A910509F495C0803B910509F494C0D4
:100BD0008E3A910509F493C08F3A910509F492C0B9
:100BE000813B910509F491C0823B910509F490C0C5
:100BF000833B910509F48FC0843B910509F48EC0B5
:100C0000853B910509F48DC0863B910509F48CC0A4
:100C1000873B910509F48BC0883B910509F48AC094
:100C2000893B910509F489C08A3B910509F488C084
:100C3000C0E0D4E487C00E94F204EC0183C0CE017E
:100C40009927D3FF03C0EC01D86C7CC0EC01D06CB9
:100C500079C0DF70D06A76C0DC2FCC27C16FD06A34
:100C600071C090E065E0880F991F6A95E1F7C1E0D7
:100C7000D0E002C0CC0FDD1F2A95E2F7C82BD92B9C
:100C8000DA6860C0DC2FCC27C46FD06A5BC0D82F75
:100C9000CC27C06FD06A56C08C2F8F70806E90E0CA
:100CA000906A24E0D695C7952A95E1F7CF709C010C
:100CB0003C2BE90147C0C0E0D0E044C0C1E8D0E42B
:100CC00041C0C3E8D0E43EC0C2EED4E43BC0C9EEAC
:100CD000D4E438C0CAEED4E435C0C5EBD4E432C0A5
:100CE000C6EBD4E42FC0C3EBD4E42CC0C4EBD4E4F3
:100CF00029C0C7EBD4E426C0CCECD4E423C0CDECAF
:100D0000D4E420C0C3E8D5E41DC0CAE8D5E41AC0C5
:100D1000C2E9D5E417C0C4E9D5E414C0C1E2D6E401
:100D200011C0C3E2D6E40EC0C4E2D6E40BC0C5E2F3
:100D3000D6E408C0C6E2D6E405C0C7E2D6E402C0E5
:100D4000CAE2D6E4CE01DF91CF91089582389105B1
:100D500049F1B0F48133910509F458C048F489325F
:100D6000910509F44EC08A32910509F454C00895E2
:100D70008533910509F440C08933910599F00895B0
:100D8000833E910529F138F4803E910591F0823E31
:100D90009105A1F00895863E9105F9F0873E9105F1
:100DA00031F108952091220220FD3AC021FD38C082
:100DB00008958091220280FD35C032C080912202C8
:100DC00082FF32C08091220284FD30C083EE39C0A0
:100DD0008091220282FD28C0F5CF8091220283FFFC
:100DE00027C08091220284FD21C087EE2AC0809115
:100DF000220283FD1DC0F5CF8091220285FD1AC01D
:100E00001BC08091220285FD17C014C08091220270
:100E100086FD14C015C08091220286FD11C00EC04F
:100E200080EE0FC089E30DC082EE0BC080E009C0E8
:100E300086EE07C089E205C085E303C08AE201C0EF
:100E400081E390E008959091220292FF0DC0282F37
:100E50002871283019F4877F846006C0282F2471F8
:100E6000243011F48B7F886093FF0DC0282F2871E8
:100E7000283119F4877E846106C0282F247124311B
:100E800011F48B7E886194FD877E089508950895FE
:100E9000EBE1F1E041E050E025E02E0F9191A92F28
:100EA000A295AF70B0E091963C9191979F70BA0176
:100EB00002C0660F771F9A95E2F7CB0180958323D6
:100EC00091968C932E13EACFADE0B1E041E050E073
:100ED0002EE02A0F8D91E82FE295EF70F0E031A11E
:100EE0008F70BA0102C0660F771F8A95E2F7CB01B7
:100EF000962F9095932391A392A1892B82A32A13D5
:100F0000E9CFE3E4F1E0A9E3B1E0119211921D927F
:100F10001D9271E0ED34F707C1F70C9437032F925F
:100F20003F925F926F927F928F929F92AF92BF9209
:100F3000CF92DF92EF92FF920F931F93CF93DF93A5
:100F40002BE1C22E21E0D22E09E311E0E801EE24CC
:100F5000E394F12C662463945E0188809980198261
:100F60001882D6018D916D01E82FE295EF70F0E0C7
:100F700021A18F70A70102C0440F551F8A95E2F787
:100F8000CA01242B21A322A1742E7094272122A30D
:100F900050EA5A95F1F79DE0292E91E0392E20E094
:100FA00030E0D1017D911D01472F42954F7050E0F7
:100FB000DA0190965C90488159817F70D70102C018
:100FC000AA0FBB1F7A95E2F7BD01652141F4B70175
:100FD000022E02C0660F771F0A94E2F702C060E09B
:100FE00070E0462B572B598348832F5F3F4F2E309D
:100FF0003105B9F691A1792271A292A1892B82A320
:101000002296F501808191818816990641F06092BF
:101010004D010E94481690934F0180934E01F1E0DC
:10102000C334DF0709F098CF80914D018823B1F0D8
:1010300080914E0190914F010E945416069770F0D6
:10104000E3E4F1E0D8018D919D918D01819391931D
:10105000B1E003341B07B1F710924D010E943F032A
:1010600081E0DF91CF911F910F91FF90EF90DF9082
:10107000CF90BF90AF909F908F907F906F905F9038
:101080003F902F900895E82FF0E0EE0FFF1FED5BEB
:10109000FE4F808191810895CF92DF92EF92FF926F
:1010A0000F931F93CF93DF938BE492E00E9489020A
:1010B00083E4E82E81E0F82EC0E0D0E096E4C92E6B
:1010C00092E0D92E0DE312E0DF93CF93DF92CF921F
:1010D0000E94220383E492E00E948902F701819139
:1010E00091917F010E9488149F938F931F930F9378
:1010F0000E9422038BE392E00E94890221968DB721
:101100009EB708960FB6F8949EBF0FBE8DBFC53030
:10111000D105D1F6DF91CF911F910F91FF90EF9004
:10112000DF90CF90089590935501809354010895D6
:10113000E0915401F0915501309721F00190F08138
:10114000E02D099480E00895EF92FF921F93CF93D2
:10115000DF93FC01A0915401B0915501109709F45F
:1011600042C080910C01882341F08091220287FFC8
:1011700004C08081818385E08083EF011296ED9128
:10118000FC911397CE0109958091F40182FF2BC049
:1011900080FF04C08AE692E00E94890218E084E69B
:1011A000E82E82E0F82E8091F40180FF0BC0888148
:1011B0001F928F93FF92EF920E9422030F900F9045
:1011C0000F900F90115021961111EDCF8091F401E5
:1011D00080FF09C082E692E0DF91CF911F91FF90DE
:1011E000EF900C948902DF91CF911F91FF90EF90C7
:1011F000089520915201309153018217930771F0A5
:101200009093530180935201E0915401F091550164
:10121000309721F00680F781E02D09940895209100
:101220005001309151018217930771F09093510151
:1012300080935001E0915401F0915501309721F0D5
:101240000084F185E02D0994089508950C942509F2
:1012500081E008950E943F160E9448070C94E4160E
:10126000CF93C82F8091F40182FF1EC080FF04C07D
:1012700083E892E00E9489028091F40180FF0CC013
:101280001F92CF938EE792E09F938F930E94220349
:101290000F900F900F900F908091F40180FF04C089
:1012A0008CE792E00E9489028C2FCF910C9442032C
:1012B0004F925F927F928F929F92AF92BF92CF9206
:1012C000DF92EF92FF920F931F93CF93DF93CDB7EF
:1012D000DEB72A970FB6F894DEBF0FBECDBF0E94CF
:1012E0008F070E942809811111C08FEF89838A839B
:1012F0001B820E9448168160782F9D838C834981D0
:101300005A816B818D810E94140A57C097E5C92EBE
:1013100091E0D92E00E010E0AA24A394B12C702E05
:10132000802F0E9443084C01F601419051906F01BB
:10133000482659264114510431F40F5F1F4F0530E0
:10134000110569F7D2CF8091F40181FD0E944C080C
:1013500020E030E07501022E02C0EE0CFF1C0A9462
:10136000E2F7C70184219521892B09F12E837F8221
:101370008E209F2091E0892809F490E098870E94B0
:1013800048168160782F9A8789874E815F816885AA
:101390008A850E94140A000F111FF801E95AFE4FB6
:1013A00080819181E826F926F182E08206C02F5FD4
:1013B0003F4F2E30310571F6C0CF109156010E947B
:1013C00098081817D9F00E949808809356012A9619
:1013D0000FB6F894DEBF0FBECDBFDF91CF911F9146
:1013E0000F91FF90EF90DF90CF90BF90AF909F90C4
:1013F0008F907F905F904F900C9430092A960FB693
:10140000F894DEBF0FBECDBFDF91CF911F910F913A
:10141000FF90EF90DF90CF90BF90AF909F908F9014
:101420007F905F904F900895CF93DF93CDB7DEB755
:101430002B970FB6F894DEBF0FBECDBF4F835887F2
:1014400069877A878B87DE01119686E0FD0111920C
:101450008A95E9F785E0FE01379601900D928A950D
:10146000E1F749815A816B817C818D819E810E9447
:10147000CF102B960FB6F894DEBF0FBECDBFDF9115
:10148000CF910895FC01808191810E94A31308955A
:10149000882309F4F3C0682F8238C1F40E949808A9
:1014A00081FDECC069E380910001909101010E94EF
:1014B00099150E9402142FEF81EE94E02150804094
:1014C0009040E1F700C0000069E319C08338F9F4E7
:1014D0000E94980880FDD2C063E580910001909140
:1014E00001010E9499150E9402142FEF81EE94E0F1
:1014F000215080409040E1F700C0000063E58091FA
:101500000001909101010E94A4150C9402148438EA
:10151000C1F40E94980882FDB1C067E48091000187
:10152000909101010E9499150E9402142FEF81EE03
:1015300094E0215080409040E1F700C0000067E453
:10154000DECF8CEF860F813A38F4809100019091C4
:1015500001010E949915D9CF80E2860F883048F4A6
:10156000677081E001C0880F6A95EAF70E9438141D
:10157000CCCF8BE5860F833070F4653A29F0663A5C
:1015800031F083E890E005C081E890E002C082E895
:1015900090E00C94F90888E5860F853108F06EC05C
:1015A000683A61F1693A69F16A3A71F16B3A79F135
:1015B0006C3A81F16B3B89F16C3B91F16D3A99F199
:1015C000603BA1F16E3AA9F16F3AB1F1613BB9F11B
:1015D000623BC1F1633BC9F1643BD1F1653BD9F199
:1015E000663BE1F1673BE9F1683BF1F1693BF9F1F9
:1015F0006A3B09F43FC080E090E03EC082EE90E09C
:101600003BC089EE90E038C08AEE90E035C085EBB3
:1016100090E032C086EB90E02FC083EB90E02CC0CE
:1016200084EB90E029C087EB90E026C08CEC90E042
:1016300023C08DEC90E020C083E891E01DC08AE8D3
:1016400091E01AC082E991E017C084E991E014C0EA
:1016500081E292E011C083E292E00EC084E292E067
:101660000BC085E292E008C086E292E005C087E206
:1016700092E002C08AE292E00C940F090895882358
:1016800009F45BC0682F823879F40E94980881FFC2
:1016900054C069E380910001909101010E94991565
:1016A0000E94021469E310C08338B1F40E949808C4
:1016B00080FF43C063E580910001909101010E9489
:1016C00099150E94021463E5809100019091010137
:1016D0000E94A4150C940214843879F40E9498088E
:1016E00082FF2BC067E480910001909101010E946C
:1016F00099150E94021467E4E7CF8CEF860F813AB8
:1017000018F380E2860F883048F4677081E001C0EA
:10171000880F6A95EAF70E943E14DCCF8BE5860FAE
:10172000833020F480E090E00C94F908685A653129
:1017300020F480E090E00C940F090895882321F0B4
:101740000E9438140C9402140895882321F00E94FA
:101750003E140C94021408954F925F926F927F9200
:10176000BF92CF92DF92EF92FF920F931F93CF938E
:10177000DF937C01D62FC72FFC01058102950F70E6
:10178000128111110E9455140E94FB13882379F0D5
:10179000112369F080E28D0F883048F082E00E94CA
:1017A000E4130E94FB1391E0B82EB92601C0B12CBE
:1017B000CC2EC2948FE0C822D12CF601E45BFF4FFF
:1017C0000C94881E8C2F807FCF70882311F0C295D7
:1017D000C07F112399F0CC2309F48DC180E28D0FD5
:1017E000883010F0D11104C08C2F0E94381403C02F
:1017F0008C2F0E9448140E9402147DC18D2F0E94DC
:101800003F0BCC2309F49CC180E28D0F883010F08F
:10181000D11104C08C2F0E943E1403C08C2F0E9453
:101820004E140E9402148CC18C2F807FCF708032A6
:1018300011F0C295C07FDD2319F0D130C9F022C06C
:10184000112371F0002341F0013031F40E946E1435
:101850008C2B0E94681474C10E946E148C2B04C1DE
:10186000002319F0013009F46BC10E946B1418C0F9
:10187000112321F0063008F063C10EC0053008F0D6
:101880005FC10EC0112351F0002331F0F7018581B3
:1018900080FF31C18F7085838C2FE6C001113CC160
:1018A0008C2FE8C08C2F86958695837090E00097EA
:1018B00019F0019761F044C1112321F08D2F9C2F65
:1018C000937002C080E090E00E94F90849C11123A2
:1018D00021F08D2F9C2F937002C080E090E00E9439
:1018E0000F093EC18C2F837009F050C0111134C113
:1018F0008D2F829586958770880F880F9D2F9F70FA
:10190000492E512C612C712C082E04C0440C551CFE
:10191000661C771C0A94D2F7D4FF14C00FE010E0C5
:1019200020E030E0B901A80104C0440F551F661F34
:10193000771F8A95D2F7CB01BA0160957095809593
:10194000909503C060E070E0CB01C695C695C3706A
:10195000D0E0C230D10561F0C330D10581F06429F7
:10196000752986299729219771F00E941812F4C0D1
:1019700064297529862997290E942A12EDC00E94A0
:101980001812C301B2010E940612E6C0112319F019
:101990008C2F817001C08695882309F4DDC08D2FBE
:1019A000829586958770880F880F9D2F9F70492E8E
:1019B000512C612C712C082E04C0440C551C661C43
:1019C000771C0A94D2F7D4FF14C00FE010E020E097
:1019D00030E0B901A80104C0440F551F661F771FEE
:1019E0008A95D2F7CB01BA01609570958095909554
:1019F00003C060E070E0CB01C695C695C3704C2F64
:101A000050E04230510569F04330510589F06429B6
:101A10007529862997294130510571F00E94DE12FF
:101A20009BC064297529862997290E94F01294C0C9
:101A30000E94DE12C301B2010E94CC128DC08D2F14
:101A400090E0FC01E05EF109E531F10508F04FC0DE
:101A5000E45AFF4F0C94881EDF708C2F8F71112376
:101A600031F00E9465128D2F0E949E0B69C00E946A
:101A700086128D2F0E94A50B63C0112341F0053003
:101A800008F05EC08C2F8F710E94AB1259C00630D7
:101A900008F056C0F7CF112339F08C2F8F710E94B8
:101AA00065124EC01123C9F38C2F8F710E948612CC
:101AB00047C0112329F08C2F8F710E94501240C013
:101AC0000E944B123DC0112349F0CF718C2F0E9410
:101AD000651263E08C2F0E94DB1332C081E00E940C
:101AE000E413023068F182E00E94E41329C011235C
:101AF00031F0002391F28D2F0E94480A21C000236B
:101B000099F2D93349F45FEF67EE73E051506040CA
:101B10007040E1F700C000008D2F0E943F0B10C005
:101B20004C2F4F706D2FC7010E94D5040E94771172
:101B300017C04C2F4F706D2FC7010E94D80410C0E2
:101B400088E0C816D10441F05CF0EAE0CE1AD10872
:101B5000F2E0CF16D10420F40E9498080E944203BC
:101B6000BB20F1F00E94D71380FD1AC0F70112824A
:101B70000E94D1130E946512C7010E94DE0D0E94CF
:101B8000D113DF91CF911F910F91FF90EF90DF90D4
:101B9000CF90BF907F906F905F904F900C94861283
:101BA000DF91CF911F910F91FF90EF90DF90CF9039
:101BB000BF907F906F905F904F9008950F931F9309
:101BC000CF93DF93EC01888199812B813C81232B7A
:101BD000B9F09F3F11F48F3F99F0CE010E9454035A
:101BE000882371F0688179818A810E94AE138C010B
:101BF0000E9402130E940312B801CE010E94AC0B96
:101C0000DF91CF911F910F9108950E9455140E946A
:101C1000651480910001909101010E94AF150E940E
:101C2000021480E090E00E94F90880E090E00C94BB
:101C30000F090E9445140C94050E0E94A313E92F6E
:101C4000E295EF70F0E03297EE30F105B0F4EF5826
:101C5000FF4F0C94881E803F91F018F4803E68F48A
:101C60000EC0843F51F40BC0803E48F0813F29F400
:101C700006C093FB882780F9089580E0089581E0ED
:101C80000895CF93DF9300D000D01F92CDB7DEB779
:101C90000F900F900F900F900F90DF91CF910895BC
:101CA000CF93DF9300D000D000D0CDB7DEB726961B
:101CB0000FB6F894DEBF0FBECDBFDF91CF91089570
:101CC000CF93DF93C091620180916301C817A1F0A7
:101CD000D0E0CE0166E070E00E946B1EFC01EC5982
:101CE000FE4F4081518162817381848195810E9480
:101CF000500E2196C770E8CFDF91CF9108954091A3
:101D00009401509195016091960170919701809195
:101D10009801909199010C94500ECF93DF9380918C
:101D2000990182958F7009F05CC08091960188239B
:101D300009F457C020916201D09163014091940150
:101D4000C0919501E0919701F09198012D1709F448
:101D500048C030E0309709F440C0CF3F11F44F3F06
:101D6000E1F1C90166E070E00E946B1EDC01AC5934
:101D7000BE4F11968C911197C8132FC08C914813A8
:101D80002CC012968C911297811127C013968D91B9
:101D90009C9114978E179F0708F401978E1B9F0B39
:101DA000883C9105D0F4809199018F708061809377
:101DB0009901C90166E070E00E946B1EFC01E759C1
:101DC000FE4F90819F709061908384E991E00E9422
:101DD000DE0DDF91CF910C94600E2F5F3F4F277087
:101DE000B5CFDF91CF910895BF92CF92DF92EF925E
:101DF000FF920F931F93CF93DF93CDB7DEB7619719
:101E00000FB6F894DEBF0FBECDBF8C0185E0F801A0
:101E1000DE011D9601900D928A95E1F7D8014C9153
:101E200011962C9111971296EC9012971396CD90D3
:101E3000DC901497509194016091950180919701E5
:101E400090919801009709F46EC16F3F19F45F3FBC
:101E500009F469C1B0909601BB2009F4C3C0309168
:101E60009901C816D90628F0F601E81BF90BCF0135
:101E700004C0809590958C0D9D1DFF24F394883CA3
:101E8000910588F0F12C307F09F0CBC07C2DD98AE8
:101E9000C88A522F6E2D89890E94410E84E991E0F3
:101EA0000E94DE0DB4C0832F807F09F049C0621309
:101EB00014C0541312C0E11010C03F703061309351
:101EC00099010E947F0E84E991E00E94DE0D8091CD
:101ED0009901D80115968C9331C0CD2831F12F3F4F
:101EE00011F44F3F11F1FE2CE1101FC0E09162018F
:101EF00030916301E31709F45CC0F0E0CF0166E0C4
:101F000070E00E946B1EDC01AC59BE4F11968C91A3
:101F10001197281307C08C91481304C012968C9116
:101F2000811103C03196E770E5CFFE2CEE2009F455
:101F300025C180919901816080939901F12C1EC186
:101F4000621308C0541306C0E11004C080919901C7
:101F5000D801C1C04D872E878D859E850E941D0E9C
:101F60008823E1F1EE20D1F120919901822F829511
:101F70008F7090E0029774F0809194019091950198
:101F800098878F831986DB86CA862C87CE010796B1
:101F90000E94DE0D86E0F801A4E9B1E001900D9207
:101FA0008A95E1F70E948D0E0E947F0EFF24F39424
:101FB000E5C04D872E878D859E850E94A313292F0E
:101FC00022952F7030E0223031050CF0CBC09F708D
:101FD00009F0C5C0805E883008F4D0C0C8010E94F6
:101FE000DE0DE4CFC816D90608F453C0F601E81B8D
:101FF000F90BCF01883C910508F450C0F12C7C2DE1
:10200000D98AC88A522F6E2D89890E94410EE4E92F
:10201000F1E086E0DF011D928A95E9F70E947F0ECC
:10202000ADC0621314C0541312C0E11010C08091EF
:102030009901F8018583C8010E94DE0D86E0E4E97C
:10204000F1E0DF011D928A95E9F7FB2C97C04D87DF
:102050002E878D859E850E941D0E882309F4BECF94
:10206000EE2009F4BBCF20919901822F82958F70C9
:1020700090E002970CF48ECF80919401909195019D
:102080009A8389831B82DD82CC822E83CE010196C6
:102090007FCF809590958C0D9D1DACCFFE2CEE20B2
:1020A00009F49CCF62132EC054132CC020919901C7
:1020B00020FD1FC0822F82958F70D9F0D801159610
:1020C0002C9315978F3049F08F5F982F9295907FC2
:1020D000822F8F70892B15968C93C8010E94DE0D7C
:1020E00086E0F801A4E9B1E001900D928A95E1F74C
:1020F00095CF86E0F801A4E9B1E001900D928A95B0
:10210000E1F73CC04D872E878D859E850E941D0E70
:10211000811140CF80919901816080939901C8011C
:102120000E94DE0D2BC0EE2009F458CF4D872E877C
:102130008D859E850E941D0EF82E882309F44ECFB2
:1021400086E0F801A4E9B1E001900D928A95E1F7EB
:1021500084E991E00E94420A0E948D0E5FCF8111B6
:1021600039CF0CC0243031050CF038CF9F7009F402
:1021700031CFF8019581907F09F02CCF8F2D61969A
:102180000FB6F894DEBF0FBECDBFDF91CF911F9188
:102190000F91FF90EF90DF90CF90BF900895CF9375
:1021A000DF93CDB7DEB72C970FB6F894DEBF0FBE26
:1021B000CDBF4F83588769877A878B879C87CE01ED
:1021C00007960E94F40E882371F08F8198852A85E6
:1021D0003B85232B09F43FC09F3F09F068C08F3F28
:1021E00009F065C038C086E0FE013796DE01119621
:1021F00001900D928A95E1F76F817885EA85FB85DC
:10220000309749F17F3F11F46F3F29F180916301CD
:1022100090E09C012F5F3F4F277033274091620170
:1022200050E02417350709F44BC069837A83FD8396
:10223000EC8366E070E00E946B1EDC01AC59BE4F7F
:1022400096E0FE01319601900D929A95E1F7209368
:1022500063010E94600E8091620190916301891771
:10226000E9F190E066E070E00E946B1E8C599E4F91
:102270000E94F40E882391F18091620190E066E063
:1022800070E00E946B1EFC01EC59FE4F40815181B1
:1022900062817381848195810E94500E80916201D8
:1022A00090E001968770992780936201D4CF4F8187
:1022B000588569857A858B859C850E94500ECBCF89
:1022C0000E94190E1092630110926201E4E9F1E09C
:1022D00086E0DF011D928A95E9F7BDCF2C960FB6F7
:1022E000F894DEBF0FBECDBFDF91CF910895EF927E
:1022F000FF920F931F93CF93DF938C01892B09F4E7
:102300006CC0F12CEE24E394E8012196F80184914D
:10231000843740F4843008F051C0813081F082303D
:1023200019F15BC0853709F444C0A8F19CE7980F08
:10233000903708F052C08F770E943F0B41C00E5F6C
:102340001F4FFE01C49180E28C0F883048F4C770A3
:102350008E2D01C0880FCA95EAF70E94581414C048
:102360008C2F0E94480A2DC00E5F1F4FFE01C491A2
:1023700080E28C0F883058F4C7708E2D01C0880F12
:10238000CA95EAF70E945E140E9402141AC08C2FAC
:102390000E943F0B16C00E5F1F4FFE01C491CC235D
:1023A00081F08FE99FE00197F1F700C00000C15074
:1023B000F6CF0E5F1F4FFE01F49003C00E94480A43
:1023C0008E018F2D882309F49FCFEFE9FFE031972D
:1023D000F1F700C000008150F5CFDF91CF911F9140
:1023E0000F91FF90EF90089508950C94F4110E94BE
:1023F000F5116093CB017093CC018093CD01909344
:10240000CE010C94050E08950C94F7110F931F93B1
:102410000091CB011091CC012091CD013091CE01E2
:10242000602B712B822B932B1F910F910C94F71122
:102430000F931F930091CB011091CC012091CD01FE
:102440003091CE0160237123822393231F910F913A
:102450000C94F7110F931F930091CB011091CC01B5
:102460002091CD013091CE016027712782279327DB
:102470001F910F910C94F71108950C943C120E9437
:102480003D126093C7017093C8018093C901909376
:10249000CA010C94050E60E070E0CB010C943F1271
:1024A0000F931F9341E050E060E070E08A019B01D0
:1024B00004C0000F111F221F331F8A95D2F7C901D4
:1024C000B8011F910F910C943F120F931F9341E09D
:1024D00050E060E070E004C0440F551F661F771F96
:1024E0008A95D2F78091C7019091C801A091C90146
:1024F000B091CA018A019B01082B192B2A2B3B2B77
:10250000C901B8011F910F910C943F120F931F93B3
:1025100041E050E060E070E004C0440F551F661FCA
:10252000771F8A95D2F74095509560957095809168
:10253000C7019091C801A091C901B091CA018A0157
:102540009B01082319232A233B23C901B8011F91AA
:102550000F910C943F120F931F9341E050E060E005
:1025600070E004C0440F551F661F771F8A95D2F78D
:102570008091C7019091C801A091C901B091CA0191
:102580008A019B01082719272A273B27C901B8017F
:102590001F910F910C943F120F931F930091C7014D
:1025A0001091C8012091C9013091CA01602B712B93
:1025B000822B932B1F910F910C943F120F931F931B
:1025C0000091C7011091C8012091C9013091CA0141
:1025D00060237123822393231F910F910C943F1248
:1025E0000F931F930091C7011091C8012091C90159
:1025F0003091CA0160277127822793271F910F917D
:102600000C943F120895282F362F892F6EE00E94D8
:10261000621E820F982F9770A1E001C0AA0F9A95B1
:10262000EAF786958695869590E065E070E00E94D1
:102630006B1EFC01E656FE4F40E050E0632F70E059
:1026400090819B01042E02C0369527950A94E2F7EB
:1026500021703327219529272A23292721934F5F8A
:102660005F4F4530510561F70895282F892F6EE09F
:102670000E94621E820FA82FA77086958695869568
:1026800090E065E070E00E946B1EBC0140E050E00D
:1026900080E0FA01E60FF71FE656FE4F208130E09A
:1026A0000A2E02C0369527950A94E2F72170332747
:1026B000042E01C0220F0A94EAF7822B4F5F5F4F6E
:1026C0004530510531F70895CF92DF92EF92FF9296
:1026D0000F931F93CF93DF938C01C090CB01D090C9
:1026E000CC01E090CD01F090CE018091C701909196
:1026F000C801A091C901B091CA01C82AD92AEA2A01
:10270000FB2ACFE1D0E0D701C6010C2E04C0B6955C
:10271000A795979587950A94D2F780FF06C0B801D0
:102720008C2F0E94FA04019721F4219760F780E032
:1027300001C08C2FDF91CF911F910F91FF90EF90EF
:10274000DF90CF900895CF93DF93EC010E94641344
:10275000BE010E94FA04DF91CF9108951F93CF9399
:10276000DF93EB0190916101992321F0CB010E944D
:10277000A31313C0882349F0CB010E946413182FC0
:10278000682FCE010E94031304C0CB010E943513B1
:10279000182FBE01812F0E94FA04DF91CF911F9163
:1027A00008958091CF0185958595859508958091AF
:1027B000CF0187700895982F990F990F990F692B62
:1027C0006093CF010C9465122091CF0180958223F4
:1027D0008093CF01982F977069F430E0482F082E2E
:1027E000000C550B2417350729F08595859585959F
:1027F0000C94861208959091CF01977081E009F4AE
:1028000080E00895E0910001F09101018091F301D1
:102810008083E0910001F091010190818091F201AB
:10282000892B8083E0910001F091010190818091DA
:10283000F101892B80838091D001882381F0E09180
:102840000001F09101019081892B8083809100012A
:10285000909101010E94121581111092D001809176
:102860000001909101010C94A4088091F301089556
:102870009091F301892B8093F301089580959091B5
:10288000F30189238093F30108951092F3010895D1
:102890009091F201892B8093F20108958095909197
:1028A000F20189238093F20108951092F2010895B4
:1028B0009091F101892B8093F10108958095909179
:1028C000F10189238093F10108951092F101089597
:1028D0008093D00108951092D00108958091D00185
:1028E0000895909331018093300108958295982F37
:1028F0009C7C292F26952695982F9373990F990FD5
:10290000922B892F8A7A86959575990F892B089530
:102910001F93CF93DF931F92CDB7DEB799830E94A9
:102920007614182F9981892F0E947614212F30E078
:10293000322F2227A901482BCA010F90DF91CF9196
:102940001F91089580E090E00E94961E21E08D3E48
:102950009E4F09F020E0822F089582E090E00C94D1
:102960008E1E83E090E00C948E1E84E090E00C9428
:102970008E1E682F84E090E00C949C1EAB01BC017D
:102980008FE090E00C94AE1EAB01BC0183E190E0BF
:102990000C94AE1E60E070E0CB010C94C41460E0B7
:1029A00070E0CB010E94BE140C94CA146DEE7EEF51
:1029B00080E090E00E94BA1E60E082E090E00E9419
:1029C0009C1E60E083E090E00E949C1E1092CB0170
:1029D0001092CC011092CD011092CE0160E084E003
:1029E00090E00E949C1E60E085E090E00E949C1EAA
:1029F00060E086E090E00E949C1E6FEF87E090E030
:102A00000E949C1E40E050E0BA0188E090E00E94E5
:102A1000AE1E60E08DE090E00E949C1E0C94CF14EE
:102A20000C94D614FC01329680910C01882331F06D
:102A30008091220287FF02C09EE101C096E080E003
:102A4000915028F021912223D9F38F5FF9CF089577
:102A50009C01FC0132969FEF80E04191461789F07E
:102A60009F3F19F4411101C0982F8F5F8630A9F75D
:102A70009F3F39F0F901E90FF11D97FDFA95628347
:102A800008950895FC01329608962081261301C00E
:102A900010823196E817F907C1F70895262F269579
:102AA000269526952E3170F4FC01E20FF11D67701A
:102AB00021E030E001C0220F6A95EAF78281282BDD
:102AC000228308958091F40180FF0CC01F926F93C0
:102AD00084EB92E09F938F930E9422030F900F90BC
:102AE0000F900F900895262F2695269526952E3126
:102AF00078F4FC01E20FF11D677021E030E001C0C5
:102B0000220F6A95EAF7209582812823228308956F
:102B10008091F40180FF0CC01F926F9386E992E0D0
:102B20009F938F930E9422030F900F900F900F900E
:102B3000089520910C01222329F02091220227FDE3
:102B40000C944E150C94281520910C01222329F089
:102B50002091220227FD0C9473150C9442152091AC
:102B60000C01FC013296222331F08091220287FF72
:102B700002C08EE101C086E0DF011D928A95E9F76F
:102B8000089508950C94C1150E94C21580912802E1
:102B9000843049F11092F50120E488E190E00FB60D
:102BA000F894A895809360000FBE2093600080E0A9
:102BB0000E9442030E94C21583B7817F846083BF55
:102BC00083B7816083BF7894889583B78E7F83BFF6
:102BD0000FB6F894A895809160008861809360009A
:102BE000109260000FBE089508950895CF930E943B
:102BF000F4150E948F070E94F515C0E08C2F0E94EB
:102C00004308892B29F4CF5FC530C1F780E001C0AC
:102C100081E0CF91089508950C940B160E94190E2F
:102C20000E9498080E9442030C940C161F920F9267
:102C30000FB60F9211248F939F93AF93BF93809100
:102C4000F501811113C080911C0290911D02A09189
:102C50001E02B0911F024196A11DB11D80931C025E
:102C600090931D02A0931E02B0931F02BF91AF91DB
:102C70009F918F910F900FBE0F901F90189582E03B
:102C800084BD93E095BD9AEF97BD80936E00089543
:102C90002FB7F89480911C0290911D02A0911E0202
:102CA000B0911F022FBF0895CF92DF92EF92FF9253
:102CB0000F931F932FB7F89440911C0250911D025F
:102CC00060911E0270911F022FBF6A017B01EE24EA
:102CD000FF248C0120E030E0C016D106E206F306A6
:102CE00010F4415051099A01281B390BC9011F9159
:102CF0000F91FF90EF90DF90CF90089578941F92FE
:102D00000F920FB60F9211248F939F93AF93BF939F
:102D100080911C0290911D02A0911E02B0911F0291
:102D20000196A11DB11D80931C0290931D02A093DA
:102D30001E02B0931F02BF91AF919F918F910F9090
:102D40000FBE0F901F901895E3E0F0E089E08093AC
:102D50005700E4918E2F867019F080E09FE30CC03D
:102D6000E2FF03C080E09EE307C0E1FF03C080E014
:102D70009CE302C080E098E39093210280932002BC
:102D800081E08093E00080E28093D8001092C90037
:102D90008FE19EE40197F1F700C0000087E090EB1F
:102DA000DC018093310290933202A0933302B093FE
:102DB00034029CE088E10FB6F894A89580936000F7
:102DC0000FBE90936000FFCF0E94A214811102C039
:102DD0000E9410150E94AD148093F4010E94B51456
:102DE00090E090932302809322020E94B114682FF6
:102DF00070E080E090E00C94041280911902089534
:102E000008959FB7F8941092F8019FBF90912802FF
:102E1000943009F057C09091E9009F703091EC0018
:102E2000232F217030FD20E8922B23E02093E9002E
:102E30002091EB0020FF43C02091EE0027FF3FC010
:102E40002091F601222321F02091E80025FF37C0D0
:102E50001092F60126E03091E80035FD15C0309162
:102E60002802343061F53091EB0035FD28C0215047
:102E700021F481E08093F60122C0EFE9FFE0319771
:102E8000F1F700C00000E7CF8093F1008091E800E7
:102E900085FD0AC08091E80080FFFCCF8091E800AA
:102EA0008E778093E80006C08FB7F89421E02093D6
:102EB000F8018FBF9F709093E90080E008959F70A4
:102EC0009093E9008FEF08950F931F93CF93DF93B3
:102ED00000D01F92CDB7DEB78C010E94EB19823073
:102EE00011F0843021F584E089831B830A8382E01A
:102EF0008093E9008FEF9091E800815095FD06C026
:102F000095ED9A95F1F700008111F5CF8091E800D9
:102F100085FF0DC040E050E063E070E0CE01019617
:102F20000E94081A8091E8008E778093E8000F9045
:102F30000F900F90DF91CF911F910F910895CF9334
:102F4000DF9300D01F92CDB7DEB720912802243046
:102F500031F523E02983805891099B838A8382E09D
:102F60008093E9008FEF9091E800815095FD06C0B5
:102F700095ED9A95F1F700008111F5CF8091E80069
:102F800085FF0DC040E050E063E070E0CE010196A7
:102F90000E94081A8091E8008E778093E8000F90D5
:102FA0000F900F90DF91CF910895CF93DF93EC01B5
:102FB0000E94EB19823011F08430D9F580910C0118
:102FC000882339F08091220287FF03C060E282E00B
:102FD00002C068E081E08093E9008FEF9091E80003
:102FE000815095FD06C095ED9A95F1F7000081118D
:102FF000F5CF8091E80085FF1CC080910C01811104
:1030000005C040E050E068E070E003C070E040E0E0
:1030100050E0CE010E94081A8091E8008E778093DC
:10302000E80080E2FE01A9EFB1E001900D928A95DF
:10303000E1F7DF91CF9108958FEE92E00C94890231
:103040008BEE92E00C94890287EE92E00E94890256
:103050000C940E162091F7012F5F822F62E30E94DD
:103060007C1E992319F02093F70108951092F7011F
:103070008091F801882371F180912802843041F514
:103080008091E9008F702091EC00922F917020FDCB
:1030900090E8892B93E09093E9009091EB0090FFEA
:1030A00014C09091EE0097FF10C09091E80095FF3A
:1030B00003C01092F100F9CF9091E80090FF05C095
:1030C0009091E8009E779093E8008F708093E900DC
:1030D0001092F801089542E061EC81E00E94111B1A
:1030E00042E261EC82E00E94111B42E261EC83E06B
:1030F0000C94111B80912A02833009F45CC030F4D7
:10310000813071F0823009F495C008958A3009F455
:1031100081C08B3009F467C0893009F0A3C020C09A
:1031200080912902813A09F09DC08091E800877F53
:103130008093E80080912D0290912E02892B21F43A
:1031400060E289EF91E003C060E080E090E070E031
:103150000E94531A8091E8008B778093E8000895CD
:1031600080912902813209F07DC080912D029091D9
:103170002E02029708F076C08091E800877F809346
:10318000E8008091E80082FD05C08091280281114D
:10319000F8CF68C080910C01882329F08091F1005C
:1031A0008B7F813021F48091F1008093190280910E
:1031B000E8008B7753C080912902813A09F052C010
:1031C00080912D0290912E02892B09F04BC08091A5
:1031D000E800877F8093E8008091E80080FFFCCFC3
:1031E00080910C0136C0809129028132D9F58091FD
:1031F0002D0290912E02892BA9F58091E800877FFE
:103200008093E8000E94461B80912B0280930C0162
:103210000C94190E80912902813221F58091E800E9
:10322000877F8093E8000E94461B80912C02809348
:103230001A02089580912902813AA1F48091E80050
:10324000877F8093E8008091E80080FFFCCF809129
:103250001A028093F1008091E8008E778093E80055
:103260000C94461B089584B7877F84BF0FB6F894EB
:10327000A895809160008861809360001092600042
:103280000FBE80E880936100109261000E942609C1
:103290000E94971B0E94EA1B8091E2008460809349
:1032A000E20081E097E10E94711478940E94471E29
:1032B0000E942A0982E091E00E94930886ED92E044
:1032C0000E94890280912802853089F482ED92E083
:1032D0000E9489020E94C41580912602882391F3DE
:1032E0000E94F615882371F30E94F219EBCF0E9419
:1032F0005809E8CF0C947C19292F33272330310546
:10330000C9F064F42130310581F02230310509F033
:1033100049C08BE590E023E233E048C0213231051B
:1033200021F12232310571F13DC082E190E02EE7BA
:1033300033E03CC099278130910571F02CF4892B42
:1033400089F5EFE1F3E00DC08230910541F003977C
:1033500049F5E3EFF2E005C0E9E0F3E002C0E9EF90
:10336000F2E0849190E09F0121C063307105D0F4B8
:10337000660F771FFB01E75DFE4F2081318189E0F9
:1033800090E014C06330710568F4FB01EE0FFF1F7D
:10339000ED5DFE4F20813181FB01E05EFE4F8081BB
:1033A00090E004C080E090E020E030E0FA0131835A
:1033B000208308950895CF93C82F0E94DA19C093EF
:1033C0001B02CF91089580912802843011F081E092
:1033D000089582E0089580911B02811102C00C942F
:1033E000E319089584E089BD86E089BD09B400FE33
:1033F000FDCF8091D8008F7D8093D8008091E00030
:1034000082608093E0008091E00081FDFCCF089510
:10341000CF92DF92EF92FF920F931F93CF93DF93A0
:10342000EC018B016A010E94651B811133C0C1143C
:10343000D10439F0F60180819181081B190BC80F66
:10344000D91FE12CF12C0115110519F18091E8002B
:1034500085FD16C08091E8008E778093E800C11446
:10346000D10449F0F60180819181E80EF91EF182C4
:10347000E08285E00FC00E94651B882321F30AC00B
:1034800089918093F10001501109FFEFEF1AFF0AB3
:10349000DACF80E0DF91CF911F910F91FF90EF90F5
:1034A000DF90CF90089520912F023091300226179F
:1034B000370748F06115710539F42091E8002E773F
:1034C0002093E80001C0B90140E06115710591F158
:1034D00020912802222309F440C0253009F43FC07E
:1034E0002091E80023FD3DC02091E80022FD2FC07F
:1034F0002091E80020FFE9CF2091F20030E0FC01AC
:10350000CF016115710559F02830310540F48191E2
:103510008093F100615071092F5F3F4FF1CF41E07F
:103520002830310509F040E02091E8002E77209303
:10353000E800CBCF4111CCCF0AC08091280288236C
:1035400061F0853061F08091E80083FD0AC08091D0
:10355000E80082FFF2CF80E0089582E0089583E0E2
:10356000089581E0089520912F02309130022617AE
:10357000370748F06115710539F42091E8002E777E
:103580002093E80001C0B901FC0120E0611571053C
:1035900079F180912802882309F43DC0853009F42F
:1035A0003CC08091E80083FD3AC08091E80082FD34
:1035B0002CC08091E80080FFE9CF8091F20090E07C
:1035C0006115710559F08830910540F424912093DC
:1035D000F1003196615071090196F2CF21E0089710
:1035E00009F020E08091E8008E778093E800CECF4C
:1035F0002111CFCF0AC080912802882361F0853045
:1036000061F08091E80083FD0AC08091E80082FFAC
:10361000F2CF80E0089582E0089583E0089581E08C
:103620000895982F953058F59093E900981739F040
:103630007091EC002091ED005091F00003C0242F18
:10364000762F50E021FF19C03091EB003E7F309380
:10365000EB003091ED003D7F3093ED003091EB00B9
:1036600031603093EB007093EC002093ED005093A9
:10367000F0002091EE0027FF07C09F5FD3CF8F702F
:103680008093E90081E0089580E008958091290207
:1036900087FF11C08091E80082FD05C0809128025B
:1036A0008111F8CF11C08091E8008B770BC0809119
:1036B0002802882349F08091E80080FFF8CF8091AC
:1036C000E8008E778093E80008952091E40030911F
:1036D000E50095E64091EC00842F817040FF22C008
:1036E0008091E80080FD1CC080912802882391F021
:1036F000853091F08091EB0085FD10C04091E40091
:103700005091E5004217530729F39A01915011F7A0
:1037100084E0089582E0089583E0089581E00895AB
:1037200080E008954091E80042FFDECF08950E94B6
:10373000F41B0E94F71BE0EEF0E080818160808343
:10374000E8EDF0E080818F77808319BCE3E6F0E05C
:103750008081816080831092270208950E94F41B6B
:103760000E94F71B8091D8008F778093D8008091BA
:10377000D80080688093D8008091D8008F7D809396
:10378000D80084E089BD86E089BD09B400FEFDCF84
:103790001092280210922402109226021092250202
:1037A00042E060E080E00E94111B8091E1008E7F8A
:1037B0008093E1008091E20081608093E20080913B
:1037C000E20088608093E2008091E0008E7F809329
:1037D000E0000895E3E6F0E080818E7F808381E061
:1037E000809327020C94AE1B1092E2000895109271
:1037F000E10008951F920F920FB60F9211242F939C
:103800003F934F935F936F937F938F939F93AF9368
:10381000BF93EF93FF938091E10082FF0BC08091F3
:10382000E20082FF07C08091E1008B7F8093E1007E
:103830000E942A188091E10080FF19C08091E20067
:1038400080FF15C08091E2008E7F8093E20080911E
:10385000E20080618093E2008091D80080628093D2
:10386000D80019BC85E0809328020E94201880911E
:10387000E10084FF30C08091E20084FF2CC084E02E
:1038800089BD86E089BD09B400FEFDCF8091D800D6
:103890008F7D8093D8008091E1008F7E8093E1003E
:1038A0008091E2008F7E8093E2008091E20081604F
:1038B0008093E20080912402882311F084E007C005
:1038C0008091E30087FD02C081E001C083E0809326
:1038D00028020E9424188091E10083FF29C0809172
:1038E000E20083FF25C08091E100877F8093E100A3
:1038F00082E080932802109224028091E1008E7F62
:103900008093E1008091E2008E7F8093E2008091BD
:10391000E20080618093E20042E060E080E00E948B
:10392000111B8091F00088608093F0000E941C18A9
:10393000FF91EF91BF91AF919F918F917F916F9187
:103940005F914F913F912F910F900FBE0F901F905D
:1039500018951F920F920FB60F9211242F933F9339
:103960004F935F936F937F938F939F93AF93BF9387
:10397000CF93DF93EF93FF93C091E900CF708091D5
:10398000EC00D82FD17080FDD0E81092E900809132
:10399000F000877F8093F00078940E94ED1C1092D5
:1039A000E9008091F00088608093F000CD2BCF700B
:1039B000C093E900FF91EF91DF91CF91BF91AF915B
:1039C0009F918F917F916F915F914F913F912F9137
:1039D0000F900FBE0F901F9018951F93CF93DF93FA
:1039E000CDB7DEB7AA970FB6F894DEBF0FBECDBF36
:1039F000E9E2F2E088E08E0F9091F10091938E134E
:103A0000FBCF0E947A188091E80083FF28C1809143
:103A1000290290912A02492F50E04A30510508F0BE
:103A20001EC1FA01E158FF4F0C94881E803821F026
:103A3000823809F014C108C08091250290912602B5
:103A4000992389F082600FC080912D028F7085309C
:103A500008F005C18093E9008091EB0085FB882781
:103A600080F91092E9009091E800977F9093E80028
:103A70008093F1001092F100D0C0282F2D7F09F023
:103A8000EEC0882319F0823061F0E9C080912B02EA
:103A9000813009F0E4C0933009F080E08093260281
:103AA0002EC080912B0281112AC080912D028F702F
:103AB0002FEF280F243008F0D2C08093E900209126
:103AC000EB0020FF1CC0933021F48091EB0080625A
:103AD00014C09091EB0090619093EB0021E030E0F6
:103AE000A90102C0440F551F8A95E2F74093EA00EE
:103AF0001092EA008091EB0088608093EB001092B6
:103B0000E9008091E800877F8093E8000E94461BCF
:103B1000A6C08111A4C010912B021F778091E300F1
:103B20008078812B8093E3008091E800877F8093E9
:103B3000E8000E94461B8091E80080FFFCCF809146
:103B4000E30080688093E300111102C082E001C0AD
:103B500083E08093280283C08058823008F07FC0C1
:103B600080912B0290912C028C3D53E0950779F5C2
:103B700083E08A838AE289834FB7F894DE01139643
:103B800020E03EE051E2E32FF0E050935700E49153
:103B900020FF03C0E295EF703F5FEF708E2F90E043
:103BA000EA3010F0C79601C0C0968D939D932F5FA9
:103BB000243149F74FBF8091E800877F8093E80068
:103BC0006AE270E0CE0101960E94531A15C060911E
:103BD0002D0270912E02AE014F5F5F4F0E947A1945
:103BE000BC01892BE1F19091E800977F9093E80068
:103BF00089819A810E94B31A8091E8008B77809323
:103C0000E8002DC0803859F58091E800877F8093C7
:103C1000E800809124028093F1008091E8008E7783
:103C200073CF81111CC090912B029230C0F480910F
:103C3000E800877F8093E800909324020E94461B4F
:103C400080912402811106C08091E30087FD02C0AB
:103C500081E001C084E0809328020E946B1880916B
:103C6000E80083FF0AC08091E800877F8093E80026
:103C70008091EB0080628093EB00AA960FB6F894D7
:103C8000DEBF0FBECDBFDF91CF911F910895CF93BF
:103C9000809128028823A1F0C091E900CF70909113
:103CA000EC00892F817090FD80E8C82B1092E9000C
:103CB0008091E80083FD0E94ED1CCF70C093E90065
:103CC000CF910895002480FD060E660F11F08695B1
:103CD000D1F7802D08950024552704C0080E591FE0
:103CE000880F991F009729F076956795B8F37105AD
:103CF000B9F7802D952F0895991B79E004C0991F7D
:103D0000961708F0961B881F7A95C9F78095089535
:103D1000EE0FFF1F0590F491E02D0994F999FECF65
:103D200092BD81BDF89A992780B50895A8E1B0E0C9
:103D300042E050E00C94C21E262FF999FECF92BDAE
:103D400081BDF89A019700B4021639F01FBA20BD60
:103D50000FB6F894FA9AF99A0FBE08950396272F92
:103D60000E949D1E0E949C1E252F0E949D1E242F96
:103D70000C949D1E0196272F0E949D1E0C949C1E44
:103D8000DC01CB01FC01F999FECF06C0F2BDE1BD1B
:103D9000F89A319600B40D9241505040B8F708950A
:043DA000F894FFCFC5
:103DA400D101FD16D51700179F1764170190919242
:103DB40093949596973031323334356264656667EF
:103DC4004071222304B203900335034E03670300BA
:00000001FF
