:100000000C9422040C946B040C946B040C946B04FD
:100010000C946B040C946B040C946B040C946B04A4
:100020000C946B040C946B040C946B040C94D91F0B
:100030000C9488200C9436180C946B040C946B046C
:100040000C946B040C946B040C946B040C94AA1821
:100050000C946B040C946B040C946B040C946B0464
:100060000C946B040C946B040C946B040C946B0454
:100070000C946B04F505F7050206F905FB05FD0573
:10008000FF05010604060606080613060A060C0606
:100090000E06100612061506E10DE10D130E130EE5
:1000A000510E930F930F930F6F0E930F120F120FAA
:1000B000830F930F930F8C0F1F0F1F0F1F0F1F0F17
:1000C0001F0F1F0F1F0F1F0F1F0F1F0F1F0F1F0FC0
:1000D0001F0F1F0F1F0F1F0F300F3E0F450F4C0F2D
:1000E000560F20102010321032102910321032100A
:1000F0003210201020102E10321032102E10F52049
:100100001C2114221C21142268218B211422E2219B
:10011000F12129001E001F002000210022002300E1
:1001200024002500260027002D0000002A002B00B7
:1001300014001A000800150017001C0018000C001D
:10014000120013002F0030000000390004001600D8
:10015000070009000A000B000D000E000F0033001D
:10016000340032002800E10064001D001B0006007E
:100170001900050011001000360037003800520049
:100180004600E000E300E200000000002C00000058
:1001900000000000E6000151500051004F00350002
:1001A0003A003B003C003D003E003F004000410063
:1001B00042004300440000002A002B0014001A00F3
:1001C0000800150017001C0018000C00AC00AE0061
:1001D000AB003000000039000400160007000900E1
:1001E0000A000B000D000E000F0033003400320037
:1001F0002800E10064001D001B0006001900050036
:100200001100A800360037003800A9008400E00083
:10021000E300E200000000002C00000000000000ED
:10022000E60000005000AA004F0044454255473AFE
:1002300020656E61626C65642E0A000A002530310B
:100240003662003A200025303258000A722F6320AF
:1002500030313233343536373839414243444546FC
:100260000A000A002530325820006B6579626F6100
:1002700072645F7265706F72743A20000A002530F4
:100280003258006B6579626F6172645F7365745F89
:100290006C65643A200064656C5F6B65795F6269C8
:1002A000743A2063616E27742064656C3A202530AF
:1002B00032580A006164645F6B65795F6269743A01
:1002C0002063616E2774206164643A2025303258BF
:1002D0000A003F00433E20004C25640A0074696D0B
:1002E00065725F72656164333228293A20253034A3
:1002F0006C580A006B65796D61705F636F6E66693B
:10030000672E6E6B726F3A2025580A006B65796212
:100310006F6172645F69646C653A2025580A006BEE
:100320006579626F6172645F70726F746F636F6C16
:100330003A2025580A00686F73745F6B6579626FA5
:100340006172645F6C65647328293A2025580A003D
:100350000A092D20537461747573202D0A004743D8
:10036000433A20352E342E30204156522D4C4942EE
:10037000433A20322E302E30204156525F415243B4
:10038000483A2061767233350A004F5054494F4E37
:10039000533A204C5546412045585452414B4559FB
:1003A00020434F4E534F4C4520434F4D4D414E44FB
:1003B000204E4B524F20424F4F544C4F41444552D8
:1003C0005F53495A450A004255494C443A2022306D
:1003D0002E362E3138302D32322D67343962643664
:1003E0003922202832323A30323A3133204E6F7679
:1003F0002031362032303138290A005649443A201B
:10040000307846454544285368696B3369494E4303
:1004100029205049443A2030783430323428536807
:100420006F72747929205645523A20307830303036
:10043000310A00444553433A20412073686F727477
:10044000204B6579626F6172640A000A092D20569B
:10045000657273696F6E202D0A000A092D20436FA3
:100460006E736F6C65202D0A4553432F713A0971E5
:100470007569740A000A092D204D61676963202D92
:100480000A443A094465627567204D657373616774
:100490006520546F67676C650A583A094D6174723C
:1004A0006978204465627567204D6F646520546FDC
:1004B00067676C65202D2053686F77206B657970B6
:1004C00072657373657320696E206D6174726978EB
:1004D00020677269640A4B3A094B6579626F6172F1
:1004E0006420446562756720546F67676C65202DD2
:1004F0002053686F77206B65797072657373207213
:1005000065706F72740A4D3A094465627567204DD3
:100510006F75736520546F67676C650A563A0956A4
:10052000657273696F6E0A533A0953746174757317
:100530000A433A09416374697661746520436F6EBA
:10054000736F6C65204D6F64650A46312D463130FE
:100550003A0953776974636820746F204C61796538
:100560007220302D392028463130203D204C302952
:100570000A302D393A0953776974636820746F2003
:100580004C6179657220302D390A4553433A09533D
:10059000776974636820746F204C617965722030CC
:1005A0002028616C7465726E617465206B657920BA
:1005B00031290A47524156453A09537769746368AD
:1005C00020746F204C6179657220302028616C7432
:1005D00065726E617465206B65792032290A50411D
:1005E0005553453A094A756D7020746F20426F6FFC
:1005F000746C6F6164657220285265736574290A92
:100600004E3A094E4B524F20546F67676C650A0093
:100610003F004E4B524F3A206F66660A004E4B52D7
:100620004F3A206F6E0A000A6D6F7573653A206F3E
:1006300066660A000A6D6F7573653A206F6E0A0070
:100640000A6B6579626F6172643A206F66660A00B0
:100650000A6B6579626F6172643A206F6E0A000AF4
:100660006D61747269783A206F66660A000A6D617E
:10067000747269783A206F6E0A000A646562756761
:100680003A206F66660A000A64656275673A206FF1
:100690006E0A000A0A4A756D70696E6720746F20D1
:1006A000626F6F746C6F616465722E2E2E20004332
:1006B0003E20005B735D004B6579626F6172642060
:1006C00073746172742E0A005B575D005B535D00AA
:1006D0005B525D000403300000000E03530068000D
:1006E0006F0072007400790000001403530068006A
:1006F00069006B003300690049004E0043000000B0
:100700000403090409025B00030100A0FA090400C4
:10071000000103010100092111010001224000072D
:1007200005810308000A0904010001030000000913
:1007300021110100012271000705820320000A092E
:10074000040200020300000009211101000122221D
:1007500000070583032000010705030320000112A1
:1007600001100100000008EDFE2440010001020319
:10077000010631FF0974A1010975150026FF0095D6
:1007800020750881020976150026FF00952075085E
:100790009102C005010980A101850316010026030D
:1007A000001A81002A8300751095018100C0050C94
:1007B0000901A1018504160100269C021A01002AE4
:1007C0009C02751095018100C005010906A10185F3
:1007D00005050719E029E715002501950875018130
:1007E0000205081901290595057501910295017504
:1007F0000391010507190029EF1500250195F075F2
:10080000018102C005010906A101050719E029E7D8
:100810001500250195087501810295017508810172
:1008200005081901290595057501910295017503C2
:1008300091010507190029FF150026FF009506758F
:10084000088100C011241FBECFEFD4E0DEBFCDBFB2
:1008500004B603FE29C08091320290913302A09128
:100860003402B09135028730904BA740B04BE1F491
:10087000109232021092330210923402109235021A
:1008800014BE84B7877F84BF0FB6F894A895809173
:100890006000886180936000109260000FBEE0915C
:1008A0002102F0912202099411E0A0E0B1E0EEE60D
:1008B000F5E402C005900D92A033B107D9F722E00C
:1008C000A0E3B1E001C01D92A233B207E1F70E949C
:1008D000181D0C94B5220C940000FF93EF93E09147
:1008E0003001F0913101309709F00995EF91FF91B6
:1008F0000895FC018591803011F0EFDFFBCF089562
:10090000FF27E0E230E247FF0CC0419597FF09C0A6
:10091000EDE26095709580959095611D711D811D2A
:10092000911D27FF02C0219530E350E2AA27660FF0
:10093000771F881F991FAA1FA41710F0A41B639587
:100940005A95A9F7AA3008F0A95FA05DAF93F39577
:10095000611571058105910541F7ED3211F4EF93B1
:10096000F395F21718F43F93F395FBCF8F91B5DF12
:10097000FA95E1F70895E991F9918591803021F098
:10098000853219F0AADFF9CF089520E0E894559157
:100990005532C1F3503311F4689455915A3348F4E9
:1009A000505390F3220F022E220F220F200D250FFD
:1009B000F4CF0EF4219589919991533619F3533759
:1009C00029F1533559F1BC0188279927E8945C3601
:1009D00021F48991999168945591543639F446EFF0
:1009E0007EF077FF0DC08FEF9FEF0AC055374AE0CA
:1009F00039F0583540E121F0523642E009F00895CF
:100A0000FF93EF937DDFEF91FF91B7CFFF93EF93CC
:100A1000FC0181918030B9F360DFFBCFFF93EF934E
:100A200068DFF1CFDF93CF93CDB7DEB72596A3DF95
:100A3000CF91DF9108950C9436090C9435090C94EC
:100A400025050C94310581E0089581E008950E9408
:100A5000BE16811102C00E942C170C941B050C9429
:100A60001D0508950C94210508950E940C100E9404
:100A700034052FEF84E39CE0215080409040E1F763
:100A800000C000000C94D018FF920F931F93CF93D7
:100A9000DF938C01FC01C081D181809161018111C2
:100AA00013C08281882349F0CE010E948715F82E59
:100AB000682FCE010E94271504C0CE010E94581550
:100AC000F82EBE018F2D04C0CE010E948715BE01F5
:100AD0000E94C906EC01B8010E941F05882309F491
:100AE0004DC1C63DFCE5DF0709F4AFC0B0F4C53128
:100AF000ECE5DE0768F4C230FCE5DF0708F053C020
:100B0000C1158CE5D80701F1C130DC4529F129C1B7
:100B1000C631DC4509F4FEC024C1CB3D8CE5D807C5
:100B200091F150F4C73DFCE5DF0709F4B1C0C83DC1
:100B3000DC4509F4D4C015C1CC3DECE5DE0751F12C
:100B4000CD3DDC45C1F00DC1F8018281882309F457
:100B500015C10E94350512C1F8018281882309F46C
:100B60000DC18091F40181608093F4018AE292E0EA
:100B70000E94790403C1F8018281882309F4FEC030
:100B80000E942C17FBC0F8018281882309F4F6C06B
:100B900080E006C0F8018281882309F4EFC082E07A
:100BA0000E94BE1DEBC0F8018281882309F4DEC0DB
:100BB0000E94BE16811102C00E942C170E94D116FD
:100BC00090E09093240280932302FE01E350FC45C1
:100BD000E231F10530F4E65CFF4F809123020C9482
:100BE0006D2280912302816027C0826025C08460CD
:100BF00023C0806121C080621FC080641DC08068E6
:100C00001BC08460886018C08E7F16C08D7F14C0A2
:100C10008B7F12C08F7E10C08F7D0EC08F7B0CC06B
:100C20008F770AC08B7F877F07C087FB222720F939
:100C300091E0922790FB87F9809323028091230211
:100C40000E94D5160E940C1099C0F8018281882359
:100C500051F0109237010E946818909334018093EC
:100C6000330182E022C08091370181110FC0809151
:100C70003301909134010E948018883C910530F432
:100C800086E20E943D0C86E20E943F0D82E024C075
:100C9000F8018281882361F0109238010E9468185F
:100CA000909336018093350180E20E949E0D66C0CC
:100CB0008091380181110FC08091350190913601EA
:100CC0000E948018883C910530F487E20E943D0C18
:100CD00087E20E943F0D80E20E94A50D4FC0F801FF
:100CE00082818111D9CF809138018111F4CF809117
:100CF0003501909136010E948018883C910558F783
:100D000080E20E94A50D88E20E943D0C88E20E94CC
:100D10003F0D34C00E945816982FF801828120910F
:100D2000000130910101882379F09A7A81E009F479
:100D300080E080933201911102C069E201C065E355
:100D4000C9010E94B6170AC080913201811102C008
:100D500069E201C065E3C9010E94C1170E9425161E
:100D60000DC081E08093370180933801C801DF9185
:100D7000CF911F910F91FF900C94230580E0DF919C
:100D8000CF911F910F91FF90089580E090E008951A
:100D90000895382F262F872F90E06EE070E00E9494
:100DA0005022FC01832F90E066E470E00E94502204
:100DB0008E0F9F1FFC01E20FF11DEE0FFF1FEE5E75
:100DC000FE4F859194910895880F991FFC01E55C71
:100DD000FD4F859194910895CF93DF930E94C906AA
:100DE0000E949608EC018115904508F041C0C1159C
:100DF00080E4D80708F020C1C83ED10510F5C03EF8
:100E0000D10508F08FC1C83AD10578F4C53AD105AB
:100E100008F0A2C0C130D10509F484C108F43BC177
:100E2000C430D10508F07EC136C1CD3BD10508F4F0
:100E30009EC0C03CD10508F42EC1CE01805C910952
:100E4000EDC0C11590E2D90758F4C11521E0D207D1
:100E500008F068C1C03FD10508F41DC1D06562C16A
:100E6000C11580E3D80708F0DDC0CE019F70D6C061
:100E7000C11595E5D90708F048C0C11524E5D2078A
:100E800008F0F3C0C11582E5D80720F5C11591E53A
:100E9000D90708F0D4C0CE01F4E096958795FA956D
:100EA000E1F7282F23703C2F337081E090E002C0DF
:100EB000880F991F3A95E2F79C68922BCF70C695E0
:100EC000C695D0E0A5E0CC0FDD1FAA95E1F7C82BB1
:100ED000D92B28C19E01237033278C2F86958695A8
:100EE000C115D34508F0B0C0C1E0D0E002C0CC0FBE
:100EF000DD1F2A95E2F790E075E0880F991F7A953B
:100F0000E1F7C82BD92BDC680DC1C11529E5D20743
:100F100080F4C11588E5D80708F0ACC0C11596E586
:100F2000D90708F0B8C0CF71DD27DC2FCC27D062FD
:100F3000F9C0CE01C1152AE5D20708F4A0C0905629
:100F40008115904208F0A7C08D2F8F710E94120961
:100F5000DD27D0628F719DC0C53AD10509F49EC0CE
:100F6000C63AD10509F09DC0C2E8D0E4DBC0C83A5A
:100F7000D10509F499C0C93AD10509F498C0CA3A13
:100F8000D10509F497C0CB3AD10509F496C0CC3A03
:100F9000D10509F495C0CB3BD10509F494C0CC3BF5
:100FA000D10509F493C0CD3AD10509F492C0C03BF4
:100FB000D10509F491C0CE3AD10509F490C0CF3AD9
:100FC000D10509F48FC0C13BD10509F48EC0C23BE5
:100FD000D10509F48DC0C33BD10509F48CC0C43BD5
:100FE000D10509F48BC0C53BD10509F48AC0C63BC5
:100FF000D10509F489C0C73BD10509F488C0C83BB5
:10100000D10509F487C0C93BD10509F486C0CA3BA4
:10101000D10509F485C0C0E0D4E484C00E94E40690
:10102000EC0180C0CE019927D3FF03C0EC01D86C3E
:1010300079C0EC01D06C76C0DF70D06A73C0DC2F51
:10104000CC27C16FD06A6EC0C1E0D0E002C0CC0F27
:10105000DD1F2A95E2F790E065E0880F991F6A95F9
:10106000E1F7C82BD92BDA685DC0DC2FCC27C46F21
:10107000D06A58C0DC2FCC27C06FD06A53C024E0A0
:10108000969587952A95E1F78F70CF70C06ED0E066
:10109000D06AD82B47C0C0E0D0E044C0C1E8D0E45B
:1010A00041C0C3E8D0E43EC0C2EED4E43BC0C9EEC8
:1010B000D4E438C0CAEED4E435C0C5EBD4E432C0C1
:1010C000C6EBD4E42FC0C3EBD4E42CC0C4EBD4E40F
:1010D00029C0C7EBD4E426C0CCECD4E423C0CDECCB
:1010E000D4E420C0C3E8D5E41DC0CAE8D5E41AC0E2
:1010F000C2E9D5E417C0C4E9D5E414C0C1E2D6E41E
:1011000011C0C3E2D6E40EC0C4E2D6E40BC0C5E20F
:10111000D6E408C0C6E2D6E405C0C7E2D6E402C001
:10112000CAE2D6E4CE01DF91CF91089582389105CD
:1011300049F1B0F48133910509F459C048F489327A
:10114000910509F44FC08A32910509F455C00895FC
:101150008533910509F441C08933910599F00895CB
:10116000833E910531F138F4803E910591F0823E45
:101170009105A9F00895863E910501F1873E9105FC
:1011800039F108952091230220FD3BC021FD39C093
:1011900008958091230280FF34C089E341C080918B
:1011A000230282FF30C08091230284FD2EC083EE93
:1011B00037C08091230282FD26C0F5CF80912302A3
:1011C00083FF25C08091230284FD1FC087EE28C0C5
:1011D0008091230283FD1BC0F5CF8091230285FD02
:1011E00018C019C08091230285FD15C012C08091DE
:1011F000230286FD12C013C08091230286FD0FC01A
:101200000CC080EE0DC082EE0BC080E009C086EEFF
:1012100007C089E205C085E303C08AE201C081E31B
:1012200090E008959091230292FF0DC0282F28711D
:10123000283019F4877F846006C0282F2471243059
:1012400011F48B7F886093FF0DC0282F28712831FF
:1012500019F4877E846106C0282F2471243111F48B
:101260008B7E886194FD877E089508950C943509DE
:10127000CF93DF93ABE1B1E040E251E061E070E099
:101280008D91E82FE295EF70F0E091A18F709B01B6
:1012900001C0220F8A95EAF7822F8095892381A3C6
:1012A0004A175B0769F7ADE0B1E04BE151E061E05F
:1012B00070E08D91E82FE295EF70F0E021A18F7042
:1012C000EB0102C0CC0FDD1F8A95E2F7CE019C2F07
:1012D0009095922391A392A1892B82A34A175B0731
:1012E00041F7E3E4F1E0A9E3B1E08DE491E011928C
:1012F00011921D921D928E179F07C9F7DF91CF9112
:101300000C9427052F923F924F925F926F927F929B
:101310008F929F92AF92BF92CF92DF92EF92FF9205
:101320000F931F93CF93DF932BE1C22E21E0D22E98
:1013300009E311E0E801EE24E394F12C66246394C0
:101340005E018880998019821882D6018D916D0185
:10135000E82FE295EF70F0E021A18F70A70102C0A5
:10136000440F551F8A95E2F7CA01242B21A322A11D
:10137000742E7094272122A350EA5A95F1F79DE02C
:10138000292E91E0392E20E030E0D1015D901D0141
:10139000452D42954F7050E0DA0190964C9068814F
:1013A0007981552D5F70D70102C0AA0FBB1F5A95D6
:1013B000E2F7AD01442141F4A701022E02C0440F1F
:1013C000551F0A94E2F702C040E050E0462B572B2D
:1013D000598348832F5F3F4F2E303105B1F691A1DD
:1013E000792271A292A1892B82A32296F501808194
:1013F00091818816990641F060924D010E9468180B
:1014000090934F0180934E01F1E0C334DF0709F060
:1014100097CF80914D018823B1F080914E0190913A
:101420004F010E948018069770F0E3E4F1E0D801C4
:101430008D919D918D0181939193B1E003341B07B0
:10144000B1F710924D010E942F0581E0DF91CF91FD
:101450001F910F91FF90EF90DF90CF90BF90AF90D2
:101460009F908F907F906F905F904F903F902F90C4
:101470000895E82FF0E0EE0FFF1FED5BFE4F808137
:1014800091810895CF92DF92EF92FF920F931F9375
:10149000CF93DF938BE492E00E94790483E4E82EFB
:1014A00081E0F82EC0E0D0E096E4C92E92E0D92E7B
:1014B0000DE312E0DF93CF93DF92CF920E941205EB
:1014C00083E492E00E947904F701819191917F0178
:1014D0000E94AB169F938F931F930F930E94120548
:1014E0008BE392E00E94790421968DB79EB708960F
:1014F0000FB6F8949EBF0FBE8DBFC530D105D1F693
:10150000DF91CF911F910F91FF90EF90DF90CF90DF
:10151000089590935501809354010895E0915401EA
:10152000F0915501309721F00190F081E02D099460
:1015300080E00895EF92FF921F93CF93DF93FC0119
:10154000A0915401B0915501109709F442C08091C7
:101550000C01882341F08091230287FF04C0808121
:10156000818385E08083EF011296ED91FC911397C2
:10157000CE0109958091F40182FF2BC080FF04C049
:101580008AE692E00E94790418E084E6E82E82E080
:10159000F82E8091F40180FF0BC088811F928F93F9
:1015A000FF92EF920E9412050F900F900F900F90F4
:1015B000115021961111EDCF8091F40180FF09C0E7
:1015C00082E692E0DF91CF911F91FF90EF900C9413
:1015D0007904DF91CF911F91FF90EF9008952091B2
:1015E0005201309153012817390771F0909353013C
:1015F00080935201E0915401F0915501309721F010
:101600000680F781E02D09940895209150013091D2
:1016100051012817390771F09093510180935001BF
:10162000E0915401F0915501309721F00084F1854B
:10163000E02D0994089508950C941B0B81E0089502
:101640000E945F180E9438090C941019CF93C82F7C
:101650008091F40182FF1EC080FF04C083E892E005
:101660000E9479048091F40180FF0CC01F92CF93F7
:101670008EE792E09F938F930E9412050F900F9038
:101680000F900F908091F40180FF04C08CE792E0EE
:101690000E9479048C2FCF910C9432055F926F9247
:1016A0007F928F929F92AF92BF92CF92DF92EF92F2
:1016B000FF920F931F93CF93DF93CDB7DEB72A9797
:1016C0000FB6F894DEBF0FBECDBF0E9482090E9404
:1016D0001E0B811111C08FEF89838A831B820E94A8
:1016E00068188160782F9D838C8349815A816B8132
:1016F0008D810E94090C56C097E5692E91E0792EE4
:1017000000E010E088248394912C502E802F0E94BA
:10171000390A6C01F301A190B1903F01A826B926C6
:10172000A114B10431F40F5F1F4F0530110569F7A3
:10173000D2CF8091F40181FD0E94420A80E090E0C6
:101740007401082E02C0EE0CFF1C0A94E2F795010A
:101750002E213F21232B09F18E835F82CE20DF20B3
:1017600081E0CD2809F480E088870E9468188160B4
:10177000782F9A8789874E815F8168858A850E9444
:10178000090C000F111FF801E95AFE4F8081918169
:10179000E826F926F182E08205C001968E30910597
:1017A00079F6C1CF0E948E0A909156018917D9F01F
:1017B0000E948E0A809356012A960FB6F894DEBFD7
:1017C0000FBECDBFDF91CF911F910F91FF90EF9092
:1017D000DF90CF90BF90AF909F908F907F906F9051
:1017E0005F900C94260B2A960FB6F894DEBF0FBEBE
:1017F000CDBFDF91CF911F910F91FF90EF90DF90C0
:10180000CF90BF90AF909F908F907F906F905F90A0
:101810000895CF93DF93CDB7DEB72B970FB6F8942B
:10182000DEBF0FBECDBF4F83588769877A878B870E
:10183000DE01119686E0FD0111928A95E9F785E0B7
:10184000FE01379601900D928A95E1F749815A8100
:101850006B817C818D819E810E94E7122B960FB651
:10186000F894DEBF0FBECDBFDF91CF910895FC018C
:10187000808191810E94C6150895CF93882309F431
:10188000FCC0C82F8238C1F40E948E0A81FDF5C0C9
:1018900069E380910001909101010E94B6170E94B6
:1018A00025162FEF81EE94E0215080409040E1F723
:1018B00000C0000069E319C0833801F50E948E0A58
:1018C00080FDDBC063E580910001909101010E94E1
:1018D000B6170E9425162FEF81EE94E0215080402C
:1018E0009040E1F700C0000063E580910001909115
:1018F00001010E94C117CF910C9425168438C1F4C0
:101900000E948E0A82FDB9C067E480910001909127
:1019100001010E94B6170E9425162FEF81EE94E078
:10192000215080409040E1F700C0000067E4DDCF27
:101930008CEF8C0F813A68F48C2F0E94931A8111DE
:101940009CC06C2F80910001909101010E94B617FC
:10195000D2CF80E28C0F883048F4C77081E001C09C
:10196000880FCA95EAF70E945B16C5CF8BE58C0FEE
:10197000833078F4C53A29F0C63A31F083E890E034
:1019800005C081E890E002C082E890E0CF910C941D
:10199000EF0A88E58C0F853108F06FC0C83A61F115
:1019A000C93A69F1CA3A71F1CB3A79F1CC3A81F18D
:1019B000CB3B89F1CC3B91F1CD3A99F1C03BA1F100
:1019C000CE3AA9F1CF3AB1F1C13BB9F1C23BC1F175
:1019D000C33BC9F1C43BD1F1C53BD9F1C63BE1F1F1
:1019E000C73BE9F1C83BF1F1C93BF9F1CA3B09F446
:1019F0003FC080E090E03EC082EE90E03BC089EEC8
:101A000090E038C08AEE90E035C085EB90E032C0BF
:101A100086EB90E02FC083EB90E02CC084EB90E04D
:101A200029C087EB90E026C08CEC90E023C08DECC1
:101A300090E020C083E891E01DC08AE891E01AC0E0
:101A400082E991E017C084E991E014C081E292E05C
:101A500011C083E292E00EC084E292E00BC085E206
:101A600092E008C086E292E005C087E292E002C000
:101A70008AE292E0CF910C94050BCF9108958823D0
:101A800009F45BC0682F823879F40E948E0A81FFC6
:101A900054C069E380910001909101010E94B61742
:101AA0000E94251669E310C08338B1F40E948E0AA3
:101AB00080FF43C063E580910001909101010E9485
:101AC000B6170E94251663E58091000190910101EF
:101AD0000E94C1170C942516843879F40E948E0A4E
:101AE00082FF2BC067E480910001909101010E9468
:101AF000B6170E94251667E4E7CF8CEF860F813A70
:101B000018F380E2860F883048F4677081E001C0E6
:101B1000880F6A95EAF70E946116DCCF8BE5860F85
:101B2000833020F480E090E00C94EF0A685A65312D
:101B300020F480E090E00C94050B0895882321F0B8
:101B40000E945B160C9425160895882321F00E94AC
:101B500061160C94251608958F929F92AF92BF92B2
:101B6000DF92EF92FF920F931F93CF93DF937C014D
:101B7000D62FC72FFC01058102950F70128111111C
:101B80000E9478160E941E16882379F0112369F0AE
:101B900080E28D0F883048F082E00E9407160E9494
:101BA0001E1691E0D82ED92601C0D12CBC2EB2949D
:101BB0008FE0B8228B2D90E0FC01E45BFF4F0C948A
:101BC0006D228C2F807FCF70882311F0C295C07F4B
:101BD000112399F0CC2309F481C180E28D0F883064
:101BE00010F0D11104C08C2F0E945B1603C08C2F03
:101BF0000E946B160E94251671C18D2F0E943F0D09
:101C0000CC2309F490C180E28D0F883010F0D111FF
:101C100004C08C2F0E94611603C08C2F0E94711685
:101C20000E94251680C18C2F807FCF70803211F0EA
:101C3000C295C07FDD2319F0D130C9F022C0112335
:101C400071F0002341F0013031F40E9491168C2B89
:101C50000E948B1668C10E9491168C2BF8C000233D
:101C600019F0013009F45FC10E948E1618C01123CB
:101C700021F0063008F057C10EC0053008F053C1FE
:101C80000EC0112351F0002331F0F701858180FF50
:101C900025C18F7085838C2FDAC0011130C18C2F44
:101CA000DCC08C2F86958695837019F0813061F0A9
:101CB0003AC1112321F08D2F9C2F937002C080E038
:101CC00090E00E94EF0A3CC1112321F08D2F9C2F40
:101CD000937002C080E090E00E94050B31C18C2F10
:101CE000837009F04CC0111127C12D2F2295269524
:101CF0002770220F220F6D2F6F70862F90E0A0E0CB
:101D0000B0E04C015D01022E04C0880C991CAA1C95
:101D1000BB1C0A94D2F7D4FF12C08FE090E0A0E081
:101D2000B0E004C0880F991FAA1FBB1F2A95D2F7E5
:101D3000BC01CD01609570958095909503C060E0E1
:101D400070E0CB01C695C695C370C23051F080F4E7
:101D5000682979298A299B29C13071F00E943D1494
:101D6000EBC0682979298A299B290E944F14E4C075
:101D70000E943D14C501B4010E942B14DDC0112343
:101D800019F08C2F817001C08695882309F4D4C086
:101D90002D2F229526952770220F220F6D2F6F7001
:101DA000862F90E0A0E0B0E04C015D01022E04C05F
:101DB000880C991CAA1CBB1C0A94D2F7D4FF12C031
:101DC0008FE090E0A0E0B0E004C0880F991FAA1F48
:101DD000BB1F2A95D2F7BC01CD0160957095809507
:101DE000909503C060E070E0CB01C695C695C370C6
:101DF000C23051F080F4682979298A299B29C130A1
:101E000071F00E94021598C0682979298A299B29B6
:101E10000E94141591C00E940215C501B4010E94D0
:101E2000F0148AC08D2F90E0FC01E05EF109E531ED
:101E3000F10508F04FC0E45AFF4F0C946D22DF709B
:101E40008C2F8F71112331F00E9489148D2F0E94E5
:101E50009E0D69C00E94AA148D2F0E94A50D63C01B
:101E6000112341F0053008F05EC08C2F8F710E9465
:101E7000CF1459C0063008F056C0F7CF112339F0FF
:101E80008C2F8F710E9489144EC01123C9F38C2F9F
:101E90008F710E94AA1447C0112329F08C2F8F71D3
:101EA0000E94741440C00E946F143DC0112349F079
:101EB000CF718C2F0E94891463E08C2F0E94FE1535
:101EC00032C081E00E940716023068F182E00E9471
:101ED000071629C0112331F0002391F28D2F0E94A3
:101EE0003D0C21C0002399F2D93349F4FFEF27EECE
:101EF00083E0F15020408040E1F700C000008D2FCA
:101F00000E943F0D10C04C2F4F706D2FC7010E94D3
:101F1000C5060E949A1314C04C2F4F706D2FC70135
:101F20000E94C8060DC098E0B91631F0B91640F00D
:101F300086EF8B0D823020F40E948E0A0E943205BB
:101F4000DD20E1F00E94FA1580FD18C0F701128231
:101F50000E94F4150E948914C7010E94CA0F0E94B2
:101F6000F415DF91CF911F910F91FF90EF90DF90CB
:101F7000BF90AF909F908F900C94AA14DF91CF9157
:101F80001F910F91FF90EF90DF90BF90AF909F90C7
:101F90008F9008950F931F93CF93DF93EC01988157
:101FA00089812B813C81232B31F08F3F31F481E0FB
:101FB0009F3F19F403C081E001C080E080FD13C0A1
:101FC000CE010E944405882371F0688179818A815D
:101FD0000E94D1158C010E9426150E941714B80189
:101FE000CE010E94AC0DDF91CF911F910F9108950A
:101FF0000E9478160E94881680910001909101013C
:102000000E94CC170E94251680E090E00E94EF0A03
:1020100080E090E00C94050B0E9468160C94F80F79
:102020000E94C615E92FE295EF704E2F50E0FA019D
:102030003297EE30F105B0F4EF58FF4F0C946D225B
:10204000803F91F018F4803E68F40EC0843F51F454
:102050000BC0803E48F0813F29F406C093FB8827DF
:1020600080F9089580E0089581E00895CF93DF938B
:1020700000D000D01F92CDB7DEB70F900F900F9019
:102080000F900F90DF91CF910895CF93DF9300D001
:1020900000D000D0CDB7DEB726960FB6F894DEBFDD
:1020A0000FBECDBFDF91CF910895CF93DF93C09145
:1020B000620180916301C817A1F0D0E0CE0166E013
:1020C00070E00E945022FC01EC59FE4F408151818A
:1020D00062817381848195810E9445102196C77029
:1020E000E8CFDF91CF9108954091940150919501EF
:1020F000609196017091970180919801909199015A
:102100000C9445101F93CF93DF9380919901829592
:102110008F7009F066C080919601882309F461C030
:102120002091620110916301C0919401D0919501B9
:10213000E0919701F091980181E0CF3F09F080E0B4
:10214000482F211709F44DC0309721F0DF3F21F0CF
:1021500080E003C081E001C0842F30E080FD3DC0FD
:10216000C90166E070E00E945022DC01AC59BE4F0C
:1021700011968C9111978D1330C08C918C132DC0BA
:1021800012968C911297811128C013968D919C9173
:1021900014978E179F0708F401978E1B9F0B883C9E
:1021A0009105D8F4809199018F7080618093990195
:1021B000C90166E070E00E945022FC01E759FE4F21
:1021C00090819F709061908384E991E00E94CA0F92
:1021D000DF91CF911F910C9455102F5F3F4F2770C7
:1021E000B0CFDF91CF911F910895AF92BF92CF9260
:1021F000DF92EF92FF920F931F93CF93DF93CDB7B0
:10220000DEB761970FB6F894DEBF0FBECDBF8C016D
:1022100085E0F801DE011D9601900D928A95E1F7A7
:10222000D8014C9111962C9111971296EC905091E7
:102230009401609195018091970190919801009788
:1022400031F06F3F31F431E05F3F19F403C031E00A
:1022500001C030E0B32FB170BB2E30FD65C1F80175
:10226000C380D480A0909601AA2009F4F2C03091D6
:102270009901C816D90628F0D601A81BB90BCD01C3
:1022800004C0809590958C0D9D1DFF24F394883C8F
:10229000910588F0F12C307F09F0A0C07C2DD98AFF
:1022A000C88A522F6E2D89890E94361084E991E0E8
:1022B0000E94CA0F31C1832F807F09F057C02613B7
:1022C00014C0451312C0FE2CE1100FC03F703061E6
:1022D000309399010E94741084E991E00E94CA0F22
:1022E00080919901F801858360C1CD2831F02F3F9D
:1022F00031F481E04F3F19F403C081E001C080E078
:1023000080FD03C081E08E2502C080E090E0F82FC0
:10231000F170FF2E80FF1FC0E091620130916301D8
:10232000E31709F41FC1F0E0CF0166E070E00E94FE
:102330005022DC01AC59BE4F11968C911197281395
:1023400007C08C91481304C012968C91E81203C008
:102350003196E770E5CFFE2CEE2009F426C180917E
:102360009901816080939901F12C1FC1261309C046
:10237000451307C0E11005C080919901F8018583DC
:10238000A5C04D872E878D859E850E9410108823BD
:1023900079F1EE2069F120919901822F82958F7059
:1023A00090E0029774F08091940190919501988744
:1023B0008F831986DB86CA862C87CE0107960E94FA
:1023C000CA0F86E0F801A4E9B1E001900D928A9568
:1023D000E1F70E9482100E9474100DC0261771F060
:1023E0004D872E878D859E850E94101081111AC001
:1023F000C8010E94CA0FFF24F394D7C04513F0CF41
:10240000E110EECF80919901F8018583C8010E9407
:10241000CA0F86E0E4E9F1E0DF011D928A95E9F751
:10242000FA2CC3C0EE2021F320919901822F8295CE
:102430008F7090E002972CF2809194019091950119
:102440009A8389831B82DD82CC822E83CE01019602
:10245000B6CFC816D90628F0F601E81BF90BCF0154
:1024600004C0809590958C0D9D1D883C910550F081
:10247000F12C7C2DD98AC88A522F6E2D89890E9411
:1024800036104AC0FE2CEE2009F4B2CF261333C01A
:10249000451331C02091990120FD24C0822F8295DF
:1024A0008F70482F50E041155105E1F0D801159685
:1024B0002C9315974F30510549F08F5F982F9295C7
:1024C000907F822F8F70892B15968C93C8010E9464
:1024D000CA0F86E0F801A4E9B1E001900D928A9557
:1024E000E1F73DC086E0F801A4E9B1E001900D926A
:1024F0008A95E1F75AC04D872E878D859E850E946B
:10250000101081115ECF80919901816080939901B3
:10251000C8010E94CA0F49C0E4E9F1E086E0DF018A
:102520001D928A95E9F71BC0EE2009F461CF4D8713
:102530002E878D859E850E941010F82E882309F421
:1025400057CF86E0F801A4E9B1E001900D928A9599
:10255000E1F784E991E00E94370C0E9482100E940A
:10256000741023C04D872E878D859E850E94C615C9
:10257000292F22952F70223028F49F7039F0811175
:1025800005C00BC0243028F49F7049F4805E883069
:1025900020F0C8010E94CA0FBF2CFB2C06C0D80136
:1025A00015969C91907F91F7F8CF8F2D61960FB67D
:1025B000F894DEBF0FBECDBFDF91CF911F910F9179
:1025C000FF90EF90DF90CF90BF90AF900895CF93A2
:1025D000DF93CDB7DEB72C970FB6F894DEBF0FBEF2
:1025E000CDBF4F83588769877A878B879C87CE01B9
:1025F00007960E94F5108823D1F09F8188852A854F
:102600003B85232B31F08F3F31F481E09F3F19F45C
:1026100003C081E001C080E080FD6FC04F8158851C
:1026200069857A858B859C850E94451066C086E009
:10263000FE013796DE01119601900D928A95E1F721
:10264000FF81E8856A857B856115710531F0EF3F73
:1026500031F481E0FF3F19F403C081E001C080E064
:1026600080FD4BC08091630190E09C012F5F3F4F44
:10267000277033274091620150E02417350709F491
:1026800043C0F983EA837D836C8366E070E00E9437
:102690005022DC01AC59BE4F96E0FE01319601900C
:1026A0000D929A95E1F7209363010E94551025C081
:1026B00090E066E070E00E9450228C599E4F0E948C
:1026C000F510882371F18091620190E066E070E07E
:1026D0000E945022FC01EC59FE4F408151816281E1
:1026E0007381848195810E9445108091620190E000
:1026F0000196877099278093620180916201909181
:1027000063018913D5CF0DC00E940C101092630194
:1027100010926201E4E9F1E086E0DF011D928A9502
:10272000E9F72C960FB6F894DEBF0FBECDBFDF9150
:10273000CF910895EF92FF920F931F93CF93DF9362
:102740008C01892B09F46CC0F12CEE24E394E80190
:102750002196F8018491843740F4843008F051C008
:10276000813081F0823019F15BC0853709F444C0B3
:10277000A8F19CE7980F903708F052C08F770E941D
:102780003F0D41C00E5F1F4FFE01849190E2980FF4
:10279000983050F48770FE2D01C0FF0F8A95EAF73C
:1027A0008F2F0E947B1614C00E943D0C2DC00E5F1F
:1027B0001F4FFE01849190E2980F983060F487706B
:1027C000FE2D01C0FF0F8A95EAF78F2F0E94811618
:1027D0000E94251619C00E943F0D16C00E5F1F4FA4
:1027E000FE01C491CC2381F08FE99FE00197F1F7BE
:1027F00000C00000C150F6CF0E5F1F4FFE01F490E5
:1028000003C00E943D0C8E018F2D882309F49FCFB9
:10281000EFE9FFE03197F1F700C000008150F5CFFC
:10282000DF91CF911F910F91FF90EF900895089540
:1028300008950C9418140C9419140E941B1460939E
:10284000CB017093CC018093CD019093CE010C9479
:10285000F80F0C941D140F931F930091CB0110914E
:10286000CC012091CD013091CE01602B712B822BB8
:10287000932B1F910F910C941D140F931F93009194
:10288000CB011091CC012091CD013091CE0160237C
:102890007123822393231F910F910C941D140F9386
:1028A0001F930091CB011091CC012091CD0130916B
:1028B000CE0160277127822793271F910F910C94D7
:1028C0001D140C9418140E9461146093C701709336
:1028D000C8018093C9019093CA010C94F80F60E07D
:1028E00070E0CB010C9463140F931F9341E050E010
:1028F00060E070E08A019B0104C0000F111F221FDD
:10290000331F8A95D2F7C901B8011F910F910C941A
:1029100063140F931F9341E050E060E070E004C047
:10292000440F551F661F771F8A95D2F78091C70104
:102930009091C801A091C901B091CA018A019B017F
:10294000082B192B2A2B3B2BC901B8011F910F9182
:102950000C9463140F931F9341E050E060E070E02B
:1029600004C0440F551F661F771F8A95D2F7409504
:102970005095609570958091C7019091C801A09184
:10298000C901B091CA018A019B01082319232A2396
:102990003B23C901B8011F910F910C9463140F934D
:1029A0001F9341E050E060E070E004C0440F551F09
:1029B000661F771F8A95D2F78091C7019091C80151
:1029C000A091C901B091CA018A019B01082719276A
:1029D0002A273B27C901B8011F910F910C9463145A
:1029E0000F931F930091C7011091C8012091C90155
:1029F0003091CA01602B712B822B932B1F910F9169
:102A00000C9463140F931F930091C7011091C80198
:102A10002091C9013091CA0160237123822393233D
:102A20001F910F910C9463140F931F930091C70192
:102A30001091C8012091C9013091CA016027712706
:102A4000822793271F910F910C9463140895282FC8
:102A5000362F892F6EE00E944722820F982F9770A1
:102A6000A1E001C0AA0F9A95EAF78695869586950A
:102A700090E065E070E00E945022FC01E656FE4FB7
:102A800040E050E0632F70E090819B01042E02C073
:102A9000369527950A94E2F72170219529272A2354
:102AA000292721934F5F5F4F4530510569F70895FE
:102AB000282F892F6EE00E944722820FA82FA7702F
:102AC00086958695869590E065E070E00E9450229C
:102AD000BC0140E050E080E0FB01E40FF51FE6564A
:102AE000FE4F208130E00A2E02C0369527950A94C9
:102AF000E2F721703327042E01C0220F0A94EAF76F
:102B0000822B4F5F5F4F4530510531F70895CF92CB
:102B1000DF92EF92FF920F931F93CF93DF938C017D
:102B2000C090C701D090C801E090C901F090CA01DF
:102B30008091CB019091CC01A091CD01B091CE01BB
:102B4000C82AD92AEA2AFB2ACFE1D0E0D701C60158
:102B50000C2E04C0B695A795979587950A94D2F741
:102B600080FD04C0219790F780E007C0B8018C2F4A
:102B70000E94EC060197B1F38C2FDF91CF911F914A
:102B80000F91FF90EF90DF90CF900895CF93DF9358
:102B9000EC010E948715BE010E94EC06DF91CF91E7
:102BA00008951F93CF93DF93EB01909161019923D7
:102BB00021F0CB010E94C61513C0882349F0CB0138
:102BC0000E948715182F682FCE010E94271504C078
:102BD000CB010E945815182FBE01812F0E94EC06D0
:102BE000DF91CF911F9108958091CF0185958595B3
:102BF000859508958091CF0187700895982F990F3A
:102C0000990F990F692B6093CF010C94891420912F
:102C1000CF01809582238093CF01982F977069F41C
:102C200030E0482F082E000C550B2417350729F0EB
:102C30008595859585950C94AA1408959091CF015A
:102C4000977081E009F480E00895E0910001F0912F
:102C500001018091F3018083E0910001F091010175
:102C600090818091F201892B8083E0910001F091A5
:102C7000010190818091F101892B80838091D001A5
:102C8000882381F0E0910001F09101019081892B6E
:102C9000808380910001909101010E942E17811183
:102CA0001092D00180910001909101010C949A0A38
:102CB0008091F30108959091F301892B8093F301A2
:102CC000089580959091F30189238093F3010895ED
:102CD0001092F30108959091F201892B8093F201F3
:102CE000089580959091F20189238093F2010895CF
:102CF0001092F20108959091F101892B8093F101D6
:102D0000089580959091F10189238093F1010895B0
:102D10001092F10108958093D00108951092D0018E
:102D200008958091D00108959093310180933001EE
:102D300008958295982F9373292F220F220F982F91
:102D40009C7C96959695922B892F8575880F9A7AFB
:102D50009695892B0895CF93DF93D92F0E949916CA
:102D6000C82F8D2F0E9499162C2F30E0322F22274A
:102D7000A901482BCA01DF91CF91089580E090E02E
:102D80000E947B2221E08D3E9E4F09F020E0822FA1
:102D9000089582E090E00C94732283E090E00C941C
:102DA000732284E090E00C947322682F84E090E01A
:102DB0000C948122AB01BC018FE090E00C94932233
:102DC000AB01BC0183E190E00C94932260E070E0E1
:102DD000CB010C94E01660E070E0CB010E94DA16A3
:102DE0000C94E6166DEE7EEF80E090E00E949F224C
:102DF00060E082E090E00E94812260E083E090E069
:102E00000E9481221092CB011092CC011092CD0130
:102E10001092CE0160E084E090E00E94812260E0A8
:102E200085E090E00E94812260E086E090E00E94D0
:102E300081226FEF87E090E00E94812240E050E025
:102E4000BA0188E090E00E94932260E08DE090E07B
:102E50000E9481220C94EB160C94F216FC0132961F
:102E600080910C01882331F08091230287FF02C0FA
:102E70009EE101C096E080E0915028F0219122234C
:102E8000D9F38F5FF9CF08959C01FC0132969FEF33
:102E900080E04191461789F09F3F19F4411101C02C
:102EA000982F8F5F8630A9F79F3F39F0F901E90F1E
:102EB000F11D97FDFA956283089508959C012A5F9C
:102EC0003F4FFC014281461301C0128201968217D6
:102ED0009307B9F70895262F2695269526952E3126
:102EE00070F4FC01E20FF11D677021E030E001C0D9
:102EF000220F6A95EAF78281282B22830895809118
:102F0000F40180FF0CC01F926F9384EB92E09F93BB
:102F10008F930E9412050F900F900F900F900895BD
:102F2000262F2695269526952E3178F4FC01E20F62
:102F3000F11D677021E030E001C0220F6A95EAF7C9
:102F4000209582812823228308958091F40180FFB7
:102F50000CC01F926F9386E992E09F938F930E941B
:102F600012050F900F900F900F90089520910C0173
:102F7000222329F02091230227FD0C946B170C9437
:102F8000441720910C01222329F02091230227FDD0
:102F90000C9490170C945E1720910C01FC01329652
:102FA000222331F08091230287FF02C08EE101C00D
:102FB00086E0DF011D928A95E9F7089508950C9443
:102FC000DE170C94DE17CF930E94E1170E9482094E
:102FD0000E94DF17C0E08C2F0E94390A892B29F448
:102FE000CF5FC530C1F780E001C081E0CF91089587
:102FF0000C94DE170C94F8170E94FA17809129029E
:10300000843049F11092F50120E488E190E00FB698
:10301000F894A895809360000FBE2093600080E034
:103020000E9432050E94FA1783B7817F846083BFB4
:1030300083B7816083BF7894889583B78E7F83BF81
:103040000FB6F894A8958091600088618093600025
:10305000109260000FBE08950C94DE170E940C10B1
:103060000E948E0A0E9432050C942C181F920F9217
:103070000FB60F9211248F939F93AF93BF938091BC
:10308000F501811113C080911D0290911E02A09143
:103090001F02B09120024196A11DB11D80931D0217
:1030A00090931E02A0931F02B0932002BF91AF9194
:1030B0009F918F910F900FBE0F901F90189582E0F7
:1030C00084BD93E095BD9AEF97BD80936E000895FF
:1030D0002FB7F89480911D0290911E02A0911F02BB
:1030E000B09120022FBF08952FB7F89460911D0270
:1030F00070911E0280911F02909120022FBF0895AF
:10310000CF92DF92EF92FF920F931F932FB7F89415
:1031100040911D0250911E0260911F027091200289
:103120002FBF6A017B01EE24FF248C0120E030E0F8
:10313000C016D106E206F30610F4415051099A0177
:10314000281B390BC9011F910F91FF90EF90DF9061
:10315000CF90089578941F920F920FB60F9211247A
:103160008F939F93AF93BF9380911D0290911E0206
:10317000A0911F02B09120020196A11DB11D809364
:103180001D0290931E02A0931F02B0932002BF91D4
:10319000AF919F918F910F900FBE0F901F90189538
:1031A000E3E0F0E089E080935700E4918E2F867091
:1031B00019F080E09FE30CC0E2FF03C080E09EE3D3
:1031C00007C0E1FF03C080E09CE302C080E098E319
:1031D000909322028093210281E08093E00080E2BC
:1031E0008093D8001092C9008FE19EE40197F1F717
:1031F00000C0000087E090EBDC01809332029093E6
:103200003302A0933402B09335029CE088E10FB6FC
:10321000F894A895809360000FBE90936000FFCF54
:103220000E94BE16811102C00E942C170E94C9166E
:103230008093F4010E94D11690E090932402809331
:1032400023020E94CD16682F70E080E090E00C947D
:103250002914CF93C82F1F928F9388ED92E09F93EC
:103260008F930E94120581E090E0A0E0B0E0BC01E5
:10327000CD0104C0660F771F881F991FCA95D2F72A
:103280000E9429140F900F900F900F90CF910C94E3
:103290000C10CF938732A8F58E3108F032C18031FF
:1032A00009F49FC0F8F4873009F465C0A8F48630AB
:1032B00009F02DC18091F401817F8E7F8093F4010C
:1032C0008AE594E00E9479048FEA96E00E947904EE
:1032D00081E08093F6014DC08B30F1F18E3009F41E
:1032E0006CC015C1863109F4B0C020F4813109F4F5
:1032F000F0C00DC1893109F491C08B3109F449C086
:1033000006C1883349F150F4893209F4FCC0853391
:1033100009F4F9C0873209F4F6C0F9C0833409F41E
:10332000F2C028F48A3308F4F2C08953EDC088341F
:1033300009F0EDC00E940C1083E996E00E94790428
:103340002FEF83ED90E3215080409040E1F700C0E3
:1033500000000E94D0180DC085E794E05CC08AE7A9
:1033600096E00E9479048091F401897F877F8093A1
:10337000F401C1E0D1C08091F401C82FC095C170A3
:10338000C0FB80F98093F401CC2349F387E896E0F1
:10339000B2C09091F40191FBCC27C0F981E0C8271D
:1033A000892FC0FB81F98093F401CC2319F08DE6BD
:1033B00096E027C08FE596E02EC09091F40192FB35
:1033C000CC27C0F981E0C827892FC0FB82F9809300
:1033D000F401CC2319F080E596E013C080E496E078
:1033E0001AC09091F40193FBCC27C0F981E0C82763
:1033F000892FC0FB83F98093F401CC2351F084E33F
:1034000096E00E9479048091F40181608093F40138
:1034100083C087E296E00E947904ABCF8BE494E00E
:103420000E94790483E394E00E9479048BEF93E097
:103430000E94790487EC93E00E9479048AE893E083
:103440000E9479048EE593E0E6CF80E593E00E9448
:1034500079040E948E0A1F928F9386E393E09F93D4
:103460008F930E94120580910C011F928F938FE120
:1034700093E09F938F930E94120580911B021F92ED
:103480008F938CE093E09F938F930E94120580911D
:10349000230287FB882780F91F928F9384EF92E0A5
:1034A0009F938F930E9412050E9474189F938F938D
:1034B0007F936F938DED92E09F938F930E941205FF
:1034C0008DB79EB746960FB6F8949EBF0FBE8DBFC0
:1034D00050CF0E940C109091230297FBCC27C0F98B
:1034E00081E0C827892FC0FB87F980932302CC2372
:1034F00029F08DE196E00E9479040EC082E196E009
:103500008ACF8D5101C080E00E94291932CF80E11D
:1035100096E00E947904C0E08C2FCF91089580E05E
:1035200008950C948F1ACF93C82F8091F6018823A9
:1035300019F0813049F03EC0E0910001F0910101A5
:1035400080818232C9F507C0E0910001F09101014C
:103550008081823261F48C2F0E94911A811104C003
:103560008C2F0E94491924C081E090E021C08C2F4B
:103570000E948F1A81111BC0C43189F018F4CB301E
:1035800029F010C0C93259F0C83361F48AE594E0DB
:103590000E94790484ED92E00E94790408C01092A0
:1035A000F6010CC082ED92E00E94790407C081E030
:1035B000817006C01092F60180E002C080E0F8CF72
:1035C000CF91089580911A02089508959FB7F894B5
:1035D0001092F9019FBF90912902943009F057C0D1
:1035E0009091E9009F703091EC00232F217030FD05
:1035F00020E8922B23E02093E9002091EB0020FFAC
:1036000043C02091EE0027FF3FC02091F701222305
:1036100021F02091E80025FF37C01092F70126E045
:103620003091E80035FD15C030912902343061F544
:103630003091EB0035FD28C0215021F481E08093CA
:10364000F70122C0EFE9FFE03197F1F700C0000079
:10365000E7CF8093F1008091E80085FD0AC080915A
:10366000E80080FFFCCF8091E8008E778093E8002F
:1036700006C08FB7F89421E02093F9018FBF9F70A7
:103680009093E90080E008959F709093E9008FEF98
:1036900008950F931F93CF93DF9300D01F92CDB760
:1036A000DEB78C010E94CE1D823011F0843021F5EE
:1036B00084E089831B830A8382E08093E9008FEF93
:1036C0009091E800815095FD06C095ED9A95F1F72F
:1036D00000008111F5CF8091E80085FF0DC040E02A
:1036E00050E063E070E0CE0101960E94EB1D8091F6
:1036F000E8008E778093E8000F900F900F90DF9195
:10370000CF911F910F910895CF93DF9300D01F9217
:10371000CDB7DEB720912902243031F523E029838B
:10372000805891099B838A8382E08093E9008FEF20
:103730009091E800815095FD06C095ED9A95F1F7BE
:1037400000008111F5CF8091E80085FF0DC040E0B9
:1037500050E063E070E0CE0101960E94EB1D809185
:10376000E8008E778093E8000F900F900F90DF9124
:10377000CF910895CF93DF93EC010E94CE1D82304C
:1037800011F08430D9F580910C01882339F08091B3
:10379000230287FF03C060E282E002C068E081E0AC
:1037A0008093E9008FEF9091E800815095FD06C06D
:1037B00095ED9A95F1F700008111F5CF8091E80021
:1037C00085FF1CC080910C01811105C040E050E0D4
:1037D00068E070E003C070E040E050E0CE010E947D
:1037E000EB1D8091E8008E778093E80080E2FE0177
:1037F000AAEFB1E001900D928A95E1F7DF91CF91A8
:10380000089580ED96E00C9479048CEC96E00C948D
:10381000790488EC96E00E9479040C942E1820918B
:10382000F8012F5F822F62E30E946122992319F031
:103830002093F80108951092F8018091F9018823EE
:1038400071F180912902843041F58091E9008F70F7
:103850002091EC00922F917020FD90E8892B93E04D
:103860009093E9009091EB0090FF14C09091EE00CE
:1038700097FF10C09091E80095FF03C01092F100EF
:10388000F9CF9091E80090FF05C09091E8009E77F5
:103890009093E8008F708093E9001092F9010895E9
:1038A00042E061EC81E00E94EF1E42E261EC82E0C6
:1038B0000E94EF1E42E261EC83E00C94EF1E8091C7
:1038C0002B02833009F45CC030F4813071F0823017
:1038D00009F495C008958A3009F481C08B3009F449
:1038E00067C0893009F0A3C020C080912A02813AC4
:1038F00009F09DC08091E800877F8093E800809167
:103900002E0290912F02892B21F460E28AEF91E040
:1039100003C060E080E090E070E00E94361E80917D
:10392000E8008B778093E800089580912A02813225
:1039300009F07DC080912E0290912F02029708F02D
:1039400076C08091E800877F8093E8008091E8004E
:1039500082FD05C0809129028111F8CF68C0809155
:103960000C01882329F08091F1008B7F813021F4B4
:103970008091F10080931A028091E8008B7753C008
:1039800080912A02813A09F052C080912E029091D2
:103990002F02892B09F04BC08091E800877F80932C
:1039A000E8008091E80080FFFCCF80910C0136C0D8
:1039B00080912A028132D9F580912E0290912F02B6
:1039C000892BA9F58091E800877F8093E8000E9409
:1039D000241F80912C0280930C010C940C10809178
:1039E0002A02813221F58091E800877F8093E800E8
:1039F0000E94241F80912D0280931B0208958091C4
:103A00002A02813AA1F48091E800877F8093E80040
:103A10008091E80080FFFCCF80911B028093F10031
:103A20008091E8008E778093E8000C94241F08951D
:103A300084B7877F84BF0FB6F894A8958091600003
:103A4000886180936000109260000FBE80E88093D0
:103A50006100109261000E941C0B0E94761F0E9460
:103A6000C91F8091E20084608093E20086EE9AE1B3
:103A70000E94941678940E942C220E94200B82E0CF
:103A800091E00E94890A87EB96E00E947904809178
:103A90002902853089F483EB96E00E9479040E9424
:103AA000FC1780912702882391F30E94E317882353
:103AB00071F30E94D51DEBCF0E944E0BE8CF0C9402
:103AC000611D292F332723303105C9F060F42130DF
:103AD000310581F02230310509F047C08BE590E0D7
:103AE00024E037E046C02132310511F122323105A0
:103AF00061F13BC082E190E02FE537E03AC09927C1
:103B00008130910561F040F08230910559F00397C2
:103B100061F5E4EDF6E008C0E0E0F7E005C0EAEEAC
:103B2000F6E002C0EAEDF6E0849190E09F0121C04A
:103B300063307105D0F4660F771FFB01E75DFE4F20
:103B40002081318189E090E014C06330710568F410
:103B5000FB01EE0FFF1FED5DFE4F20813181FB0168
:103B6000E05EFE4F808190E004C080E090E020E0C5
:103B700030E0FA013183208308950895CF93C82F50
:103B80000E94BD1DC0931C02CF910895809129020F
:103B9000843011F081E0089582E0089580911C0244
:103BA000811102C00C94C61D089584E089BD86E091
:103BB00089BD09B400FEFDCF8091D8008F7D809330
:103BC000D8008091E00082608093E0008091E00066
:103BD00081FDFCCF0895CF92DF92EF92FF920F9379
:103BE0001F93CF93DF93EC018B017A010E94431F57
:103BF000811133C0E114F10439F0F7018081918122
:103C0000081B190BC80FD91FC12CD12C0115110588
:103C100019F18091E80085FD16C08091E8008E774B
:103C20008093E800E114F10449F0F701808191816B
:103C3000C80ED91ED182C08285E00FC00E94431FEA
:103C4000882321F30AC089918093F1000150110962
:103C5000FFEFCF1ADF0ADACF80E0DF91CF911F911B
:103C60000F91FF90EF90DF90CF9008952091300258
:103C7000309131022617370748F06115710539F484
:103C80002091E8002E772093E80001C0B901FC01E3
:103C900020E06115710561F1809129028823D9F135
:103CA0008530D9F18091E80083FD39C08091E8002A
:103CB00082FD2BC08091E80080FFEBCF8091F20065
:103CC00090E06115710551F08830910538F421912B
:103CD0002093F100615071090196F3CF21E008971C
:103CE00009F020E08091E8008E778093E800D1CF42
:103CF0002111D2CF0AC080912902882361F085303A
:103D000061F08091E80083FD0AC08091E80082FFA5
:103D1000F2CF80E0089582E0089583E0089581E085
:103D2000089520913002309131022617370748F06C
:103D30006115710539F42091E8002E772093E80091
:103D400001C0B901FC0120E06115710579F1809194
:103D50002902882309F43DC0853009F43CC08091D4
:103D6000E80083FD3AC08091E80082FD2CC080917C
:103D7000E80080FFE9CF8091F20090E061157105C5
:103D800059F08830910540F424912093F100319648
:103D9000615071090196F2CF21E0089709F020E007
:103DA0008091E8008E778093E800CECF2111CFCFAD
:103DB0000AC080912902882361F0853061F08091EA
:103DC000E80083FD0AC08091E80082FFF2CF80E026
:103DD000089582E0089583E0089581E00895982F82
:103DE000953068F59093E900981739F07091EC00E0
:103DF0002091ED005091F00003C0242F762F50E069
:103E000021FD02C09F5FECCF3091EB003E7F3093ED
:103E1000EB003091ED003D7F3093ED003091EB00F1
:103E200031603093EB007093EC002093ED005093E1
:103E3000F0002091EE0027FDE5CF80E008958F701F
:103E40008093E90081E0089580912A0287FF11C0E4
:103E50008091E80082FD05C0809129028111F8CF90
:103E600011C08091E8008B770BC0809129028823D4
:103E700049F08091E80080FFF8CF8091E8008E77CC
:103E80008093E80008952091E4003091E50095E6E4
:103E90004091EC00842F817040FF23C08091E800A6
:103EA00080FD1DC080912902882399F0853099F00A
:103EB0008091EB0085FD11C04091E4005091E50038
:103EC0002417350729F3915011F09A01E1CF84E0CE
:103ED000089582E0089583E0089581E0089580E0E8
:103EE00008954091E80042FFDDCF08950E94D31F5E
:103EF0000E94D61FE0EEF0E0808181608083E8EDD3
:103F0000F0E080818F77808319BCE3E6F0E0808168
:103F1000816080831092280208950E94D31F0E941E
:103F2000D61F8091D8008F778093D8008091D800D9
:103F300080688093D8008091D8008F7D8093D800CE
:103F400084E089BD86E089BD09B400FEFDCF1092F2
:103F5000290210922502109227021092260242E0B6
:103F600060E080E00E94EF1E8091E1008E7F8093F0
:103F7000E1008091E20081608093E2008091E200A4
:103F800088608093E2008091E0008E7F8093E00063
:103F90000895E3E6F0E080818E7F808381E0809366
:103FA00028020C948D1F1092E20008951092E100F7
:103FB00008951F920F920FB60F9211242F933F93E3
:103FC0004F935F936F937F938F939F93AF93BF9321
:103FD000EF93FF938091E10082FF0BC08091E2009C
:103FE00082FF07C08091E1008B7F8093E1000E94F7
:103FF0000F1C8091E10080FF19C08091E20080FFDA
:1040000015C08091E2008E7F8093E2008091E200F3
:1040100080618093E2008091D80080628093D80014
:1040200019BC85E0809329020E94051C8091E10063
:1040300084FF30C08091E20084FF2CC084E089BD01
:1040400086E089BD09B400FEFDCF8091D8008F7D48
:104050008093D8008091E1008F7E8093E100809171
:10406000E2008F7E8093E2008091E2008160809385
:10407000E20080912502882311F084E007C080913E
:10408000E30087FD02C081E001C083E08093290244
:104090000E94091C8091E10083FF29C08091E20009
:1040A00083FF25C08091E100877F8093E10082E05B
:1040B00080932902109225028091E1008E7F8093E7
:1040C000E1008091E2008E7F8093E2008091E20027
:1040D00080618093E20042E060E080E00E94EF1E99
:1040E0008091F00088608093F0000E94011CFF9195
:1040F000EF91BF91AF919F918F917F916F915F9160
:104100004F913F912F910F900FBE0F901F901895D8
:104110001F920F920FB60F9211242F933F934F933C
:104120005F936F937F938F939F93AF93BF93CF933F
:10413000DF93EF93FF93C091E900CF708091EC0083
:10414000D82FD17080FDD0E81092E9008091F00066
:10415000877F8093F00078940E94CC201092E90031
:104160008091F00088608093F000CD2BCF70C093D9
:10417000E900FF91EF91DF91CF91BF91AF919F91B6
:104180008F917F916F915F914F913F912F910F9000
:104190000FBE0F901F9018951F93CF93DF93CDB74D
:1041A000DEB7AA970FB6F894DEBF0FBECDBFEAE226
:1041B000F2E08091F100819322E0E233F207C9F747
:1041C0000E945F1C8091E80083FF2EC180912A022B
:1041D00090912B02492F50E04A30510508F024C13C
:1041E000FA01E158FF4F0C946D22803821F082389B
:1041F00009F01AC108C080912602909127029923E4
:1042000089F082600FC080912E028F70853008F097
:104210000BC18093E9008091EB0085FB882780F932
:104220001092E9009091E800977F9093E8008093C6
:10423000F1001092F100D1C0282F2D7F09F0F4C0B9
:10424000882319F0823061F0EFC080912C02813018
:1042500009F0EAC0933009F080E0809327022EC075
:1042600080912C0281112AC080912E028F702FEF35
:10427000280F243008F0D8C08093E9002091EB008B
:1042800020FF1CC0933021F48091EB00806214C0A9
:104290009091EB0090619093EB0021E030E0A90158
:1042A00002C0440F551F8A95E2F74093EA0010922E
:1042B000EA008091EB0088608093EB001092E900A7
:1042C0008091E800877F8093E8000E94241FACC0A3
:1042D0008111AAC010912C021F778091E300807891
:1042E000812B8093E3008091E800877F8093E80032
:1042F0000E94241F8091E80080FFFCCF8091E300A2
:1043000080688093E300111102C082E001C083E065
:104310008093290289C08058823008F085C080913E
:104320002C0290912D028C3D53E0950779F583E0A6
:104330008A838AE289834FB7F894DE01139620E0DE
:104340003EE051E2E32FF0E050935700E49120FF6C
:1043500003C0E295EF703F5FEF708E2F90E0EA3080
:1043600010F0C79601C0C0968D939D932F5F2431A6
:1043700049F74FBF8091E800877F8093E8006AE2A9
:1043800070E0CE0101960E94361E16C060912E028A
:1043900070912F02AE014F5F5F4F0E945F1DBC0105
:1043A000892B09F441C09091E800977F9093E80031
:1043B00089819A810E94911E8091E8008B77809379
:1043C000E80032C0803881F58091E800877F8093D3
:1043D000E800809125028093F1008091E8008E77BB
:1043E00072CF811121C080912C0290912D029927CA
:1043F0000297D4F48091E800877F8093E800809151
:104400002C02809325020E94241F80912502811195
:1044100006C08091E30087FD02C081E001C084E016
:10442000809329020E94501C8091E80083FF0AC0FB
:104430008091E800877F8093E8008091EB008062A4
:104440008093EB00AA960FB6F894DEBF0FBECDBFE7
:10445000DF91CF911F910895CF93809129028823F6
:10446000A1F0C091E900CF709091EC00892F81708C
:1044700090FD80E8C82B1092E9008091E80083FD50
:104480000E94CC20CF70C093E900CF910895002402
:1044900080FD060E660F11F08695D1F7802D0895E8
:1044A0000024552704C0080E591F880F991F009734
:1044B00029F076956795B8F37105B9F7802D952F9A
:1044C0000895991B79E004C0991F961708F0961B70
:1044D000881F7A95C9F780950895EE0FFF1F059004
:1044E000F491E02D0994F999FECF92BD81BDF89A1F
:1044F000992780B50895A8E1B0E042E050E00C941F
:10450000A722262FF999FECF92BD81BDF89A019777
:1045100000B4021639F01FBA20BD0FB6F894FA9A0B
:10452000F99A0FBE08950396272F0E9482220E94B7
:104530008122252F0E948222242F0C948222019610
:10454000272F0E9482220C948122DC01CB01FC01E6
:10455000F999FECF06C0F2BDE1BDF89A319600B4DC
:0E4560000D9241505040B8F70895F894FFCFE7
:10456E00D101E21ABA1BE51A841B491B01909192E4
:10457E00939495969730313233343562646566671D
:10458E0040712204089307710716072F074807008A
:00000001FF
